:020000022000DC
:10600000000001205D630200456302004763020057
:10601000496302004B6302004D6302000000000070
:106020000000000000000000000000004F630200BC
:106030005163020000000000536302005563020038
:10604000097B020057630200597F02005763020078
:106050005763020057630200097E02005763020083
:106060005763020057630200576302005763020040
:106070005763020057630200576302005763020030
:1060800057630200396D0200576302005763020034
:106090005763020057630200CDA10200576302005C
:1060A0005763020057630200576302005763020000
:1060B0005763020057630200000000000000000068
:1060C00057630200576302005763020057630200E0
:1060D000576302005763020057630200000000008C
:1060E00000000000000000000000000000000000B0
:1060F00000000000000000000000000000000000A0
:10610000000000000000000000000000000000008F
:10611000000000000000000000000000000000007F
:10612000000000000000000000000000000000006F
:10613000000000000000000000000000000000005F
:10614000000000000000000000000000000000004F
:10615000000000000000000000000000000000003F
:10616000000000000000000000000000000000002F
:10617000000000000000000000000000000000001F
:10618000000000000000000000000000000000000F
:1061900000000000000000000000000000000000FF
:1061A00000000000000000000000000000000000EF
:1061B00000000000000000000000000000000000DF
:1061C00000000000000000000000000000000000CF
:1061D00000000000000000000000000000000000BF
:1061E00000000000000000000000000000000000AF
:1061F000000000000000000000000000000000009F
:10620000314932480A1A02D0072291438D4630495B
:1062100030480A1A06D00722914381F309880222E6
:1062200082F314882C482D492D4A00F03CF82D4863
:106230002D492E4A00F037F82D482E492E4A00F0FD
:1062400032F82E482E492F4A00F02DF82E482F49BB
:106250002F4A00F028F82F482F49304A00F023F841
:106260002F483049304A00F01EF8304830490022AB
:1062700000F024F82F483049002200F01FF82F4A80
:1062800090471F481F49884205D00268043003B474
:10629000904703BCF7E700208646EC46002000212B
:1062A000274A9047FEE7884207D0521A05D0037864
:1062B00001300B700131013AF9D17047884202D0A8
:1062C00002700130FAE770470000012000E0002072
:1062D00000000120000001207CA70200984300205C
:1062E00068720020B8630200B863020004A50200CF
:1062F0007CA702009843002098430020FCA50200E0
:10630000FCA50200FCA50200FCA50200FCA5020001
:10631000FCA50200FCA50200FCA502007CA702006F
:106320004CD602006872002068720020687200205B
:10633000FC7E0020FC7E0020FC7E002085630200A5
:10634000058C0200FEE7FEE7FEE7FEE7FEE7FEE75C
:10635000FEE7FEE7FEE7FEE700F002B8FFF7FCBF4E
:106360000F484FF00701884385460E4880470E4886
:10637000016841F470010160BFF34F8FBFF36F8F6D
:10638000FFF73EBF09480A490A4A884207D0521A15
:1063900005D0037801300B700131013AF9D1704713
:1063A00000000120FD75020088ED00E0FCA5020060
:0863B0009843002098430020EF
:1063B800C30710B507D4F023054A4008145C2340EE
:1063C8001943115410BD0901C9B20F23F4E700BFE6
:1063D8009872002030B5094B1C78094B19680023C6
:1063E8009C4202DC0022104630BD11F83350854231
:1063F80001EBC302F7D00133F2E700BF6872002057
:10640800A872002013B504460191FFF7E3FF38B1E5
:1064180043682BB10199204602B0BDE810401847E7
:1064280002B010BD034B044819680022490800F067
:1064380038BA00BF6C7200207072002010B5C0B26C
:10644800FFF7C8FF0446007801F0D0FC63785A1EB5
:1064580053425341834208D1044BD3E900231343E9
:1064680003D1BDE81040FFF7DDBF10BD90720020DA
:1064780037B54308354AD35CC2074CBF1B0903F044
:106488000F0304460D46042B35D8DFE803F0032537
:106498002C383C0079B30121FFF78AFF00230DF166
:1064A80007008DF8073000F0EDFA0120A4F1200371
:1064B800C4F12001264A20FA01F100FA03F30B4344
:1064C800A040D2E9004120430B43C2E900039DF8F4
:1064D800070000F0FBFA0EE0002918BF0221204651
:1064E800FFF766FF07E041B10321FFF761FF0121D4
:1064F8002046FFF787FF03B030BD0121EFE70029F1
:10650800F9D10421EBE709B10321E8E7FFF750FFD0
:1065180029462046FFF776FF0DF107008DF8075052
:1065280000F0B0FA0120A4F12003C4F12001084AC8
:1065380020FA01F100FA03F30B43A040D2E900412D
:1065480024EA000021EA0303BFE700BF9872002095
:10655800907200202DE9F041124E134F0024337839
:10656800A34208DC114BD3E90023134318D0BDE83C
:10657800F041FFF757BF3D6805EBC40815F8340034
:1065880001F034FC98F801305A1E53425341181A4E
:106598004142414115F83400FFF76AFF0134DEE754
:1065A800BDE8F08168720020A87200209072002077
:1065B800092AF7B505460C4616463CD901F034FBC6
:1065C800D8B11E4B1E481D601E4B1F4F1C701F4B21
:1065D800002110221E6003F007FF1D4B0020002140
:1065E800C3E90001013CE4B20326FF2C0BD1194A90
:1065F8001948002100F04AF903E001F0D7FA002811
:10660800DFD003B0F0BD9DF8063015F834008DF8E2
:10661800046005EBC40223F007038DF8063001A9D6
:1066280093788DF805303A4601F008FB013CE4B256
:106638000028DAD0E5E70720E3E700BFA8720020CA
:106648009872002068720020456402006C72002075
:10665800907200205D650200FCA5020070B5084D2F
:10666800084E00242B789C4201D3002070BD33686B
:10667800012113F8340001F053FB0134F2E700BFA5
:1066880068720020A872002073B5114D114E0024C5
:106698002B789C4214D300230DF107008DF80730A6
:1066A80000F0F0F90C4B00210020C3E900019DF82F
:1066B800070000F00BFA094800F00BF902B070BDB2
:1066C800336813F8340001F06FFB0134E0E700BFD2
:1066D80068720020A872002090720020707200205A
:1066E8001FB50021039001AA44F20100CDE9011170
:1066F80000F004F805B05DF804FB000072B6094B21
:106708001B68DB0700D500BEBFF34F8F0649074B58
:10671800CA6802F4E0621343CB60BFF34F8F00BF37
:10672800FDE700BFF0ED00E000ED00E00400FA0531
:10673800D0E90223D1E90201994208BF90422CBF57
:10674800012000207047000008B50B4800F0D9FA76
:106758000A4B0B49D3E900231218D1E9000143F190
:1067680000038B4208BF824203D212F1807243F1C8
:1067780000031046194608BD98430020B072002057
:106788002873002037B505460C460A4801A900F0D1
:10679800ECFA60B10570446001A9064800F00FFBEF
:1067A80018B1054800F0B2FA002003B030BD04204B
:1067B800FBE700BF147300209843002038B5184B3E
:1067C8001B78044613B90025284638BD0028FAD09E
:1067D800037F03F0FF05002BF5D0FFF7B5FFD4E9E1
:1067E8000223994208BF904214D3236903B923773F
:1067F800D4E90530984721690029E4D0237F03F0C4
:10680800FF05002BDFD0D4E90223521843F100031F
:10681800C4E902230348214600F052FDD4E700BF33
:10682800B872002004A6020013B5114B114918686C
:10683800019008231048582200F084FA044698B9B9
:106848000E4A0F4801A900F065F9044660B90C48E2
:10685800012100F039FA01230A4A0948194600F0D3
:106868009BF9094B01221A70204602B010BD00BFE7
:1068780000A60200BC72002014730020F568020014
:1068880098430020FFFF7F00B87200203AB10368E8
:106898005A614A1E51425141196100207047072030
:1068A800704738B5037F04460D4683B98261FFF708
:1068B8004BFF2369401941F10001C4E9020103B10A
:1068C800256121460020BDE83840FFF75BBF002066
:1068D80038BD0023014603770120FFF753BF0000AE
:1068E800014800F00EBA00BF984300202DE9F04F90
:1068F80085B0804600F0F0F940B15A4AD2E900313B
:1069080013F1807341F10001C2E9003100214046D2
:1069180000F0F1F938B1544E336823B13068FFF70D
:106928004DFF002333600121404600F0E4F920B117
:10693800FFF70AFF4D4BC3E900014D484A4F4D4E42
:10694800DFF8389103A900F04AFA002845D1DFF8AA
:106958002491454EDFF828A1484600F0C7FC33686B
:10696800002875D07BB13368D0E90201D3E902234E
:10697800994208BF90422DD233681B7F1BB1316802
:10698800484600F09DFC484600F0AAFCD0E902B356
:1069980007460193FFF7D8FE019BBBEB000463EBAE
:1069A8000105012C75F1000345DBB4F5350F40D323
:1069B800FFF796FF304A02444FF4960300215046F1
:1069C80000F00AF900283ED1336813B9404600F0B8
:1069D800DBF8376005B0BDE8F08F0378012B1DD0D8
:1069E800022B09D14FF0000A304600F079FC00284C
:1069F80034D080F81CA0F7E73BB941680B7F23B976
:106A080001230B77304600F05BFC03A9184800F01F
:106A180011FA03A9164800F0E2F996E741683B68C5
:106A2800994202D100233B60EFE7304600F061FC59
:106A3800EBE7BA68C0E70021504600F052F9384643
:106A4800FFF7BCFE01E00D28F9D00023336083E78F
:106A5800002BBFD1404600F09BF8BBE7012389F823
:106A68000030D2E7B0720020307300202873002075
:106A78001473002004A60200FFFFB400B8720020BF
:106A88009843002070B5EFF3108672B60C4A9468EC
:106A980001239CB993600B4B0B4DD3F88010294010
:106AA8001160C3F88050D3F8841051604FF0FF3262
:106AB800C3F88420047006B962B670BD0370FAE7A3
:106AC8003473002000E100E0FC06FFBD084B9A6823
:106AD80010B55AB150B9EFF3108172B6054A1C6867
:106AE80014605C685460986001B962B610BD00BF5C
:106AF8003473002000E100E0435882B03BB100232A
:106B0800435043580193019B012002B07047184637
:106B1800FBE7000070B5184C437944F82320174C64
:106B280004EBC3031B792BBB03680A88C3F8082549
:106B380090F904508B7802795B01002DDBB214DBED
:106B48000F494E1986F8003301236D0902F01F0220
:106B580003FA02F241F82520437904EBC30201212C
:106B680044F833001171002070BD064902F00F028D
:106B78008B54F1E70820F7E74873002040730020A2
:106B880000E100E014ED00E0036801221A6070479C
:106B9800036801225A60704773B501F15005AD00D2
:106BA8000068ADB24FF480348C400026C0F808432A
:106BB800C0F84843465101F5A8714559019522F09E
:106BC8007F42019D40F82120C0F844430BB1C0F832
:106BD800044302B070BD00002DE9F74F0D4622F0C6
:106BE8007F4402684FF4803705F150068F40804695
:106BF800B60002EB8500C2F84873B6B2C2F8087353
:106C0800D2F8041599464FF0000BD0F84035C0F87B
:106C1800401542F806B05B1A9259009223F07F4360
:106C2800012B009A4FEA850A0CD1264B4FF480605D
:106C380043F001039847D8F8003043F806B09B5951
:106C48000193019BD8F80010D1F80465C1F844738A
:106C5800A31B23F07F43012B1CD11A4B05F5A87504
:106C6800013443F0010341F825404FF48060984710
:106C7800D8F80030D3F804359E4209D1D8F800304E
:106C88000020C3F84473C3F8047303B0BDE8F08F61
:106C98000D20FAE78A44C9F1FF13CAF84045D1F834
:106CA8000405221A013A22F07F4203F57F439342FA
:106CB800EED3002AE2D10134CAF84045D1F80435B0
:106CC8009842DAE710A6020003680222C3F84423B8
:106CD80009B1C3F80423704700684FF48271FFF7C5
:106CE8000BBF4FF4803303FA01F10368C3F848136C
:106CF800C3F80813704750318900006889B2FFF75C
:106D0800FBBE0368D3F804057047000090F904300F
:106D1800002B09DB5A09012103F01F0301FA03F3D1
:106D28004032024941F82230704700BF00E100E0DC
:106D3800024B034A1B681068184700BF48730020BD
:106D48004073002010B561B1B2FBF3F403FB1424C7
:106D5800A4B244B9C0E9001484608281C38120468A
:106D680010BD0E20FCE70920FAE737B550E8013FCF
:106D78009DB2C48925448489A54228BF2D1B048956
:106D8800A54202BFBFF32F8F002207E0C5EA030523
:106D980040E80154002CE9D14FF001028DF803209E
:106DA8000193019B9DF803200B6002F0FF0322B1C1
:106DB8000B880068184403B030BD1846FBE70A8802
:106DC8004B889A4209D150E8012FC2EA024240E8B2
:106DD8000123002BF7D1012070470020704737B5F9
:106DE80050E8023F1FFAA3F5C488A54202BFBFF3CB
:106DF8002F8F00220DE0C48925448489A54228BF2D
:106E08002D1BC3EA054540E80254002CE8D14FF099
:106E180001028DF803200193019B9DF803200B606C
:106E280002F0FF0322B14B880068184403B030BD5C
:106E38001846FBE70A884B889A4209D150E8022F86
:106E4800C2EA224240E80223002BF7D10120704712
:106E58000020704701F01F024B090121914000EB0F
:106E6800830000F013B801F01F0301229A404B0978
:106E780000EB8300D14300F015B84B0901F01F0166
:106E880050F82300C84000F00100704710B50346D1
:106E980053E8002F42EA010043E8000494F0000F91
:106EA800F6D110BD10B5034653E8002F02EA0100E1
:106EB80043E8000494F0000FF6D110BD10B590B16E
:106EC800D0E9012301689B1ADBB20A60013BDBB2FF
:106ED800FF2B026802D10020107110BD11684C1CF4
:106EE80014600B70F2E70E20F7E737B5054600246B
:106EF8000DF107008DF80740FFF7C4FD2A686B689D
:106F0800116899420ED9481E106011F8014CEB68BF
:106F1800298A01FB0434AB6811791B1ADBB2994248
:106F280038BF13719DF80700FFF7D0FD204603B066
:106F380030BD37B5054600230DF107000C468DF826
:106F48000730FFF79FFD2A681368591C1160E9682C
:106F5800641A298AB4FBF1F41C709DF80700FFF746
:106F6800B5FD03B030BD2DE9F84FB0F806A045795E
:106F7800D2F800B09DF828900AFB05F5043D884634
:106F88000BEB0301A94203F1040488BFA5EB030B33
:106F9800B4FBFAF607460AFB1644C2F800B04EB92D
:106FA800AAEB04055D4528BF5D46BBF1000F04D17F
:106FB800BDE8F88F3F68013EF1E7043408EB0600AE
:106FC8003C442A46B9F1000F0DD02146ABEB050B26
:106FD80003F0E1F9DA452E443F6855464FF00004C6
:106FE80028BF5D46E1E701462046EFE7FFF766BFA9
:106FF800F8B546790146721E0546002393422D686E
:1070080003D30024A64202D8F8BD0133F6E70F687F
:107018002846FFF78EFF01343946F3E72DE9F84398
:10702800068ACD1C0746FFF760FF043E3544044638
:10703800B5FBF6F5F0B14FF48073EDB28380C680EE
:10704800013D076081464FF00008A84512D2384636
:10705800FFF74BFF064648B163790133637108F1C6
:107068000108C9F8000007608146EEE72046FFF7EF
:10707800BFFF34462046BDE8F8831FB503920022BF
:10708800009203AAFFF76FFF05B05DF804FB1FB578
:1070980003920122009203AAFFF765FF05B05DF88D
:1070A80004FB41DF70470000064B10B500241C703C
:1070B800054B1C60BFF35F8F0449054800F0EAF8F0
:1070C800204610BD547300205873002018A60200F3
:1070D8004C73002007B500230DF107008DF8073029
:1070E800FFF7D0FCF1EE103A23F09F03E1EE103ADF
:1070F800BFF35F8F094B4022C3F884219DF8070036
:10710800FFF7E4FC03F044F820B1FFF7CAFF03B02F
:107118005DF804FB20BF40BF20BFF8E700E100E0B6
:10712800026813685268934291BFD01A8068013090
:10713800801888BFC01A7047036881681A685B683E
:107148008B4234BF01330023D31A58425841704749
:10715800F7B5002304460DF107000D468DF80730FA
:10716800FFF790FC2046FFF7E7FF10B1237C002BC8
:107178003CD12268A66853685168B14234BF0131D6
:107188000021516030B11168A068814234BF0131DB
:1071980000211160E2686068511E072920D8DFE8E5
:1071A80001F004101F141F1F1F182A78C25420460C
:1071B800FFF7B6FF23689A68824200D298600024DD
:1071C80015E02A8820F81320F1E72A6840F82320E0
:1071D800EDE7D5E9006700EBC300C0E90067E6E723
:1071E800294603FB020003F0D6F8E0E704249DF8E3
:1071F8000700FFF76BFC204603B0F0BD0368186872
:107208005B68C31A58425841704773B50023054656
:107218000DF107000C4616468DF80730FFF732FCD3
:107228002846FFF7EBFF002832D129680B682EB9F2
:107238000A68A868824238BF561C0E60EA68696806
:10724800501E07281ED8DFE800F0040E1D121D1D71
:107258001D16CB5C237000249DF80700FFF736FC51
:10726800204602B070BD31F813302380F3E751F89F
:1072780023302360EFE701EBC301D1E90023C4E920
:107288000023E8E703FB0211204603F084F8E2E755
:107298000524E1E70B684A684360934208BF00236E
:1072A800016008BF43607047436843B10268916852
:1072B80052680B449342436004BF00234360704705
:1072C80070B5446806460D46206818B1B36829466B
:1072D800984718B923682B60256070BD2468F3E7C8
:1072E8004368186808B102681A60704743681868EC
:1072F80070474368186800B97047884203D102682C
:107308001A600120704703460068F4E749B152B19A
:10731800531E1A4007D1826001608380C260104604
:1073280070470E2070470920704710B58468C268FE
:107338008388121B934208D3C26813400268D15451
:10734800C3680133C360002010BD0420FCE78268D5
:10735800C3689A420AD08268838813400268D35C63
:107368000B708368013383600020704705207047E5
:107378000648074A03780749D35C012213B1043051
:1073880001F036BA0C3000F0FFBF00BFA043002068
:10739800A4730020847300200648074A037807492D
:1073A800D35C012213B1043001F0CEB90C3000F0E7
:1073B80099BF00BFA0430020A4730020857300205C
:1073C80037B50578012D0BD0022D2ED065B91E4991
:1073D8001E48FFF7BCFF002832D1FFF7DDFF03E0AE
:1073E800037A1BB9FFF7C4FF03B030BD4368184CDC
:1073F80019782046FFF799FF80B18DF80050019069
:10740800144B68461B689847A168E368A2885B1A12
:107418009A42E7D2104B01221A70E5E7A268E368A6
:107428009A42F1D08DF80000EAE7C3688DF8005061
:107438000193FFF79DFF074B68461B689847D3E702
:1074480003238DF80030F6E785730020747300205D
:10745800607300205C73002070730020F0B51F4635
:10746800234B89B004461A600D4600293DD08A880E
:1074780020480968FFF74AFF002834D1AA89A9687B
:107488001D48FFF743FF00282DD11C4E0FCE6D4637
:107498000FC596E80F0085E80F0063690693237C03
:1074A800174A18488DF81C70003B18BF01238DF847
:1074B8001430637C002B14BF0E2300238DF8153085
:1074C800E3680293A368039323680193694663689A
:1074D800009300F09BFA30B90B4B18702368013306
:1074E80001D0FFF745FF09B0F0BD0720FBE700BF5B
:1074F8005C730020607300207473002024A60200CF
:10750800C9730200A04300207073002070B5084DB5
:10751800014608482E78FFF71AFF044636B10023C3
:107528002B70FFF725FF08B1FFF7DAF8204670BD8A
:10753800707300206073002010B501460E48FFF7F5
:10754800F4FE0446A8B90D480D4A0378D35C63B12C
:10755800043001F041F960B90A490748FFF7F7FE1E
:1075680038B9BDE81040FFF717BF0C3000F000FF36
:10757800F1E7204610BD00BF74730020A04300202F
:10758800A4730020857300200B4B1B685A1C05BF91
:107598000A4B0B4A0B4A10680ABF1B781068C0F3E5
:1075A8000310062B05D1033803288CBF00200120C7
:1075B80070470020704700BF30010010E00F00F056
:1075C800E80F00F034010010074B1B78062B09D197
:1075D800064B1B68C3F30313033B032B02D8044A6F
:1075E800D05C704700207047E00F00F0E80F00F013
:1075F8004CA6020008B5FFF7C7FF28B1834B844AA1
:107608001B68C3F304231360FFF7DEFF10B1814B3F
:10761800814A1A60FFF7B8FF28B1804B804A1B687F
:10762800C3F342331360FFF7CFFF20B17D4AD3681D
:1076380023F08073D360FFF7A7FF40B14FF080437A
:107648000022C3F80C21C3F81021C3F83825FFF72E
:10765800BBFF10B1744B03221A60FFF7B5FF40B1AE
:10766800724B05221A6001229A6700229A603F2213
:107678005A606F4B1A68511C0BBF6E4B6E4B1A78D1
:107688001B6802BF08331B68C3F30313062A4DD1D6
:10769800033B032B4AD8694AD35C002B46D04FF0F2
:1076A8008052674BD2F80414C3F82015D2F8081496
:1076B800C3F82415D2F80C14C3F82815D2F81014FE
:1076C800C3F82C15D2F81414C3F83015D2F81814CE
:1076D800C3F83415D2F81C14C3F84015D2F8201496
:1076E800C3F84415D2F82414C3F84815D2F828145E
:1076F800C3F84C15D2F82C14C3F85015D2F830142E
:10770800C3F85415D2F83414C3F86015D2F83814F5
:10771800C3F86415D2F83C14C3F86815D2F84014BD
:10772800C3F86C15D2F84424C3F87025FFF72CFF72
:1077380028B1444B444A1B6803F04F031360FFF71A
:1077480023FF48B14FF08043D3F80024D20744BF49
:107758006FF00102C3F80024354B1B68062B0CD1CF
:10776800354B1B68033B032B07D8384AD35C23B13E
:10777800374A136843F480631360364AD2F8883076
:1077880043F47003C2F88830BFF34F8FBFF36F8F95
:107798004FF01023D3F80022002A03DBD3F8043279
:1077A800002B2FDA2C4B0122C3F80425D3F8002430
:1077B800002AFBD04FF010221521C2F80012D3F88E
:1077C8000024002AFBD04FF010231522C3F804220E
:1077D800214B1A46D3F800140029FBD00021C3F826
:1077E8000415D2F80034002BFBD0BFF34F8F194992
:1077F8001A4BCA6802F4E0621343CB60BFF34F8FA1
:1078080000BFFDE7164B174A1A6008BD2403001095
:107818004035014074C007400DF0ADBA4402001075
:107828003C050040F0ED00E0A00500401056004087
:1078380030010010E00F00F03401001044A60200EF
:1078480000C0004058020010E40E004048A60200A4
:107858003C17004000ED00E000E001400400FA059C
:10786800B44300200090D00338B5074C051E04F13E
:10787800080318BF1C4623682BB11A6822605B688E
:1078880028469847F7E738BD9073002020B9054B84
:1078980001225A70FFF7E8BF012802D1014A90700F
:1078A800F8E770478873002020B9034B01225A700B
:1078B800FFF7DABF704700BF8873002038B50E4C59
:1078C8002378B3B90D486360A3602361E36000F0D7
:1078D800E5F8054602F05CFC08B900F0EBF8012376
:1078E8002370074BD3F800340BB10123A37028464B
:1078F80038BD8525F5E700BF88730020957802001C
:107908000000014037B50D4C00230DF107008DF83C
:107918000730FFF7B7F8E368013BE360E36833B982
:10792800074BD3F8005415B900F0D6F8A5709DF8A8
:107938000700FFF7CBF803B030BD00BF8873002005
:1079480000000140012813B50CD0032820D038B915
:10795800124B0122C3F88020BFF34F8FBFF36F8F04
:1079680002B010BD0E4C00230DF107008DF8073052
:10797800FFF788F823780BB9FFF7A0FFE3689DF8B5
:1079880007000133E3600123A370FFF79FF8E7E7DF
:1079980000F090F8FFF7B6FFE2E700BF00E100E073
:1079A800887300201FB503788DF800304368019371
:1079B80083688DF80830C368054A0393054B684609
:1079C80053F8213052F82110984705B05DF804FBB0
:1079D8009C730020A07300201FB503788DF8003039
:1079E8004368019383688DF80830C368054A039398
:1079F800054B684653F8213052F82110984705B0D6
:107A08005DF804FB9C730020A0730020F0B5194BAF
:107A180090F800C091F81DE043F82C20164B16464C
:107A28000A6943F82C20154B03F80CE00C4607466E
:107A38000FCC89B06D460FC594E80F0085E80F009C
:107A4800CDF810C0BEF1000F09D0002E0C4A6946CF
:107A580008BF3246381D00F0B3FD09B0F0BD002E56
:107A6800084A694608BF324607F10C0000F084FB5B
:107A7800F3E700BFA07300209C730020A4730020CC
:107A8800AD790200E179020000F18040002382B064
:107A9800036003680193019B02B07047044A13799D
:107AA80023B90121106091801846704785207047DE
:107AB800A8730020074B1A68D20704D4C02283F8A1
:107AC800002301221A604FF080430122C3F81825D1
:107AD800704700BF00E100E04FF0804208B5022384
:107AE800C2F808334FF48270FFF7CEFF034B012131
:107AF8001960D2F81834DB03FBD408BD0C00004031
:107B0800124B1B6810B573B14FF48070FFF7BCFFC0
:107B18004FF080430122C3F808230D4B587910B960
:107B28005A711B6898470B4B1B6873B14FF48270EE
:107B3800FFF7AAFF4FF080430222C3F80823044B43
:107B4800BDE810401B680120184710BD0001004027
:107B5800A87300200401004000F1804000F5C040F7
:107B6800002382B0036003680193019B02B0704751
:107B7800800000F1A040D0F8002722F44032C0F87D
:107B88000027D0F8003743EA0141C0F800177047D2
:107B9800054B4FF0FF32072843F8202084BFC01858
:107BA80080F84820704700BFB073002010B51A4C09
:107BB80094F858306BBB4FF0FF3222FA03F1C90733
:107BC80048BFE11803F1010348BF81F83020202B9A
:107BD800F3D10021C8B2FFF7DBFF01310C29F9D13D
:107BE800042200210D4802F0FFFB0D4BC02283F850
:107BF800062340221A604FF4BE70FFF7ADFF094B11
:107C08004FF00042C3F80423012384F858300020C1
:107C180010BD0820FCE700BFB073002004740020EA
:107C280000E100E000600040034B93F85800003882
:107C380018BF0120704700BFB0730020F0B5364D63
:107C48002C1894F93040002C64DA8C78C4F3400482
:107C5800002C0BBF082300230C260826B34201D1B1
:107C68000420F0BD55F8237001373FD12E1845F890
:107C7800232086F8303014B9EA1882F848008A7848
:107C8800540713D4D60733D5820002F1A042D2F8A4
:107C9800004724F00204C2F80047204EC20800F052
:107CA80007070124BC40B75C3C43B4548A780C787D
:107CB80012F0020225D09B0003F1804303F5C04374
:107CC8000202D3F8101521F4473121F44071C3F8AA
:107CD80010152404D3F8101502F4F85204F44034B3
:107CE80022430A43C3F810250020BAE70133B5E759
:107CF8004C7800F5E0724FF0A046A40046F8224008
:107D0800CBE7083B2B4493F8501041EA841483F8DE
:107D18005040E9E70820A4E7B0730020047400206D
:107D280038B51F4C251895F93020072A16DD22444E
:107D380092F848309B09032B0BD14FF0A043D3F89E
:107D48001015C14001F001010231BDE83840FFF7CC
:107D58000FBF012B0CBF02210321F6E7D3B2072B7B
:107D68001CD8930003F1804303F5C043D3F81005F2
:107D780040F00100C3F8100502F14000800080B215
:107D8800FFF7EAFE51B195F9303054F823302BB1A2
:107D9800012303FA02F2034BC3F8042338BD00BFE2
:107DA800B0730020006000400E4B034493F930206C
:107DB800072A02DD0021FFF7DBBED3B2072B10D85C
:107DC800930003F1804303F5C043D3F8101521F065
:107DD8000101C3F81015012303FA02F2024BC3F89C
:107DE80008237047B0730020006000404FF0A043A4
:107DF800D3F8103523FA00F000F0010070470000B6
:107E08002DE9F74F00244E4D01944FF48072012163
:107E180002F1804303F5C04390B21B68012B06D1E1
:107E2800D5F804330B4202D0FFF796FE0C43043218
:107E3800B2F5907F4FEA4101EAD1424B1B68012B12
:107E48000CD14FF4BE70FFF787FE4FF0A04344F00B
:107E58000044D3F820250192C3F8202514F0FF0F21
:107E68001AD0394F01260025344210D0AB0003F157
:107E7800804303F5C043D3F81005D3F8101557F81D
:107E8800253023B1C1F30141C0F3042098470135DF
:107E9800082D4FEA4606E7D1002C48DA2A4D4FF064
:107EA800A0482A4E4FF00009012716F9013B5A1C39
:107EB80031D0C3F3C20202A90A44DCB212F8042C7E
:107EC80003F03F0A03F0070307FA03F31A4222D02C
:107ED8000AF5E073504658F82330C3F3014BBBF161
:107EE800020F0CBF03210221FFF742FE07FA0AF333
:107EF800C8F8203505EB0A0393F9303055F82330DC
:107F08004BB1A109032904D0BBF1020F12D10129F9
:107F180001D15046984709F10109B9F1040FC4D1BC
:107F2800D8F820350193C8F82035002BB9D103B013
:107F3800BDE8F08FBBF1030FEDD10229E8E700BFE0
:107F4800006000407C610040B07300200074002095
:107F5800014B1B68184700BF0C7400200E4B984259
:107F680037B50C4602D0002003B030BD00230DF118
:107F780007008DF80730FEF785FD084B1D7915B908
:107F880001221C601A719DF80700FEF79FFD002D65
:107F9800E9D01120E8E700BF002000400C74002061
:107FA8000023435082B043580193019B02B07047AD
:107FB8000A4610B54FF48E71FFF7F2FF136A916805
:107FC800C95C136A01331362C0F81C1510BD024660
:107FD80008B500684FF49271FFF7E2FF4FF484711F
:107FE8001068FFF7DDFF136801221A6008BD8B696E
:107FF8000A4610B54FF4847123B9FFF7D1FFD0F8C2
:10800800183510BDFFF7CCFF536AD168D0F81805B2
:10801800C854536A01335362F3E700001FB50123C4
:108028008DF80030044BCDE90110D3E90012684601
:10803800904705B05DF804FB1474002030B54C4837
:10804800D0F8043313F4007F85B005464DD0D0F83E
:108058002431002B49D04FF49271FFF7A1FF4FF460
:108068000173C0F80833434B93F829200AB9012259
:1080780042603F4902228DF80020D1F88024C1F8DF
:10808800802403929A690292DA6801920022C3E975
:1080980006226846D3E9001290473548D0F81C31CB
:1080A8005BB134494A690B6A9A420A464AD991F83F
:1080B8002830002B46D1FFF77BFF2D48D0F84431FC
:1080C8008BB14FF4A271FFF76BFF2A4B93F829206D
:1080D8000AB1012202609A692AB10022586AD96855
:1080E8009A61FFF79BFF05B030BDD5F804335B07F5
:1080F800D3D5D5F80831002BCFD01E4C1C482146CB
:10810800FFF775FF636AA2699A422346C5D1E269FF
:10811800E1684AB12369E3600023606AA261E36110
:108128006362FFF77BFFB8E794F829200AB90122B8
:108138006A600F4A4FF40170C2F808030022586AB7
:108148009A61EEE70A484FF48E71FFF729FF5369E9
:10815800002BB2D051690291002391688DF800304C
:10816800019153616846D2E900139847A5E700BF1B
:1081780000200040147400202DE9F843544B057981
:1081880091462C2202FB0532064692F82A200C461C
:108198009846002A40F098804E490068FFF7DEFEB6
:1081A8000746002840F0928021683368481C0BD0AD
:1081B8004FF0A04001228A40C0F8082501F5E0727E
:1081C8004FF0030C40F822C06068421C1FBF00F546
:1081D800E0724FF0A04C4FF0000E4CF822E0A2697C
:1081E800C3F8242594F814C0627DBCF1010F4CEA51
:1081F8000202C3F86C25C3F81405C3F80C151DD189
:10820800A1684A1C1FBF01F5E0724FF0A0404FF073
:10821800000C40F822C0E268501C0BD04FF0A04C74
:1082280001209040CCF8080502F5E0704FF0030EED
:108238004CF820E0C3F80825C3F810152C236B432D
:1082480008EB0302C2F80490226948F80320B9F148
:10825800000F21D03068247F4FF48E71FFF7A0FE05
:108268004FF4A2713068FFF79BFE32681A4BC2F8D0
:108278000433110B42F307326301002ADBB21EDB21
:108288001648841884F800330123520901F01F01AD
:1082980003FA01F140F8221033680422C3F80025DC
:1082A8002C2303FB05830022C3E9062283F8292037
:1082B8005A61012283F82A203846BDE8F883084A23
:1082C80001F00F015354E7E70827F5E71127F3E713
:1082D80014740020458002008000020000E100E0E4
:1082E80014ED00E02DE9F047204F90F804904FF08E
:1082F8002C0808FB097405466669002E34D16261B2
:108308000068A16026624FF48E7184F82860FFF738
:1083180047FE2868012383602146FFF749FE63680A
:10832800A0468BB92868D4F814A0236A9A4511D8B6
:108338002A68D2F81C31002BFBD00123D3602C23F0
:1083480003FB097300225A613046BDE8F08794F8B0
:1083580028303BB9D0F81C31002BF8D04146FFF744
:1083680027FEE2E70F26EAE71126EDE7147400205E
:108378000379044A2C2101FB03235869003818BFEC
:1083880001207047147400202DE9F843394F05790E
:108398002C2303FB057306465C6824B103684FF47D
:1083A8000170C3F808032C2303FB0573986950B1C7
:1083B800D86900283ED024B133684FF40172C3F85D
:1083C8000423112433E09A61D9605862D8612C23C0
:1083D80003FB057393F829301BB910B93046FFF732
:1083E800F6FD4FF02C0909FB05783068D8F8043001
:1083F800002B34D14FF4A271C146FFF7D1FD30688C
:10840800D0F82431D0F80821D0F84441B2B90CB9D9
:10841800002BF4D02C2202FB05750022AA6123BB95
:108428002CBB95F8291033680122B1B11A60204697
:10843800BDE8F8831961DA610120C8E7002BE9D1AA
:10844800002CE7D14946FFF7D2FDD8F82430D8F8F8
:1084580018209A42D3D82346DCE75A60E7E74FF45E
:108468000173C0F804330024E1E70324DFE70F2495
:10847800DDE700BF147400200023435082B0435846
:108488000193019B02B070471FB501238DF800309E
:10849800044BCDE90110D3E900126846904705B0B6
:1084A8005DF804FB407400207FB5434AD2F824618C
:1084B800002E60D010464FF49271FFF7DDFF0223C3
:1084C8008DF80030D2F88034C2F880340393D2F8A3
:1084D8003C350293394BDA6801920022C3E906223F
:1084E8006846D3E9001290473348D0F8443173B155
:1084F8004FF4A271FFF7C0FF304B9A693AB10022DE
:10850800C3E90622D968D0F83C05FFF7BDFF2A4821
:10851800D0F82031ABB14FF49071FFF7ADFF0123D4
:10852800C360264B5A6962B1D0F84C1502910022FB
:1085380099688DF8002001915A616846D3E90012C4
:1085480090471D48D0F858319BB14FF4AC71FFF7F4
:1085580093FF1A4B5A6962B1D0F84C150291002268
:1085680099688DF8002001915A616846D3E9001294
:10857800904704B070BDD2F81031002BB4D04FF43E
:1085880088711046FFF778FF0C4BD2F83C059969C3
:108598008842A9D1DC69D96864B1D2F8005225F0C3
:1085A8002005C2F800521A699C61DA60DE61FFF7A3
:1085B8006BFF99E79C61FAE70020004040740020B7
:1085C8002DE9F8435B4B06799146242202FB0632DB
:1085D800044692F820200D469846002A40F0A580CF
:1085E80055490068FFF7BAFC0746002840F09F800D
:1085F80029682368481C0BD04FF0A04001228A400C
:10860800C0F8082501F5E0724FF0030C40F822C0CD
:108618006868421C1FBF00F5E0724FF0A04C4FF095
:10862800000E4CF822E0AA69C3F8242595F814C076
:108638006A7DBCF1010F4CEA0202C3F86C25C3F84D
:108648000C15C3F814051DD1A9684A1C1FBF01F5F4
:10865800E0724FF0A0404FF0000C40F822C0EA68EA
:10866800501C0BD04FF0A04C01209040CCF80805CE
:1086780002F5E0704FF0030E4CF820E0C3F808252F
:10868800C3F810152423734308EB0302C2F80490BF
:108698002A6948F80320B9F1000F30D020682A7FF2
:1086A8004FF48871FFF7E8FE20684FF49071FFF7E8
:1086B800E3FE20684FF49271FFF7DEFE20684FF466
:1086C800A271FFF7D9FE4FF4AC712068FFF7D4FE12
:1086D80023681A49C3F80413190B43F307335201EB
:1086E800002BD2B21CDB1648C51885F800230122DE
:1086F8005B0901F01F0102FA01F140F82310236819
:108708000822C3F80025242303FB06830022C3E9BB
:1087180006225A61012283F820203846BDE8F883F2
:10872800084B01F00F015A54E9E70827F5E711272C
:10873800F3E700BF40740020B18402001003420038
:1087480000E100E014ED00E001F06043B3F1005FE8
:108758002DE9F041064638D11E4B0779242505FB43
:10876800073598466C69002C31D16A610068A960A8
:108778004FF49071FFF780FE4FF4AC713068FFF74B
:108788007BFE33686A69A968C3F84415C3F84825AD
:1087980001229A606A68AAB9D3F82021D3F858410F
:1087A8001AB9002CF8D00F2407E0002CFBD10122C5
:1087B800DA60D3F85821002AFBD0242303FB07876B
:1087C80000237B612046BDE8F0811024FAE71124DC
:1087D800F8E700BF407400200379044A242101FB14
:1087E80003235869003818BF0120704740740020DF
:1087F800F8B501F06043B3F1005F04460F465ED15F
:108808000379304D242101FB0351496821B10068E7
:108818004FF40476C0F80863242000FB03539E69D4
:1088280056B1D869002839D021B123684FF40472B1
:10883800C3F80423112030E09A61DF60DE6120680C
:108848004FF48871FFF718FE20684FF4A271FFF704
:1088580013FE2368C3F83475C3F8382516BB012204
:108868001A602179242202FB015252680ABBD3F80C
:108878001041D3F84421D3F82401144302D100282D
:10888800F5D02246242303FB01550023984218BF44
:1088980003209A42AB6118BF0F20F8BD1F61DA614F
:1088A8000126CCE7D3F8002242F02002C3F80022C8
:1088B800D7E74FF40472C3F804230020EDE7102033
:1088C800EBE700BF40740020032811D8012A0AD121
:1088D80001290FD100F10E02D2B20D4B00EB40007E
:1088E8001A54002070470129F7D0022904D049B151
:1088F800072070470022F8E7054B00EB40001844BA
:108908004270EEE7024B00EB400018448270E8E743
:108918006474002008B5012202210020FFF7D4FF6B
:1089280008B1072810D1072202210120FFF7CCFF48
:1089380008B1072808D100210A220846FFF7C4FF1A
:1089480010B1072808BF002008BD00000388102BBD
:1089580010B502D0112B1ED010BD1A4C2168B1B928
:1089680001220846FFF7B0FF08B1072824D10722E3
:1089780002210120FFF7A8FF08B107281CD1042213
:1089880002210020FFF7A0FF08B1072814D12368AF
:1089980001332360E0E70B4A1368013B1360002BA7
:1089A800DAD1FFF7B7FF0028D6D0074B1B68002B9A
:1089B800D2D0BDE810401847034B1B68002BE6D007
:1089C8009847E4E7747400207074002075DF7047DE
:1089D80076DF70478FDF70470A8840F677239A4220
:1089E80001BF8B88014A033B13807047E443002092
:1089F800FDF776BE4288034B0146182000FB023083
:108A080001F04EBA2C7B002008B5064801F086F923
:108A180008B1FDF765FE4FF0A0434FF40032C3F8EC
:108A28000C2508BDEC7B00200388212B13B50446D8
:108A380064D007D8112B40D01F2B55D0102B0AD04B
:108A480002B010BD3B2B01D0562BF9D1A0881321C1
:108A5800FFF7BEFF4DE0FDF701FEA388072B02D903
:108A68000020FDF73DFEA188284B1820002200FBBE
:108A7800013001F0F7FA08B1FDF732FEA188244B66
:108A88004FF4BA6000FB013000F070FC08B1FDF74C
:108A980027FE4FF0A0444FF48023C4F80C3500F0B3
:108AA8007FFA08284FF4003302D1C4F80835C7E725
:108AB800C4F80C35FFF7A8FFC2E700F071FA50B907
:108AC800FDF7E2FD08B1FDF70BFE4FF0A0434FF4B0
:108AD8008022C3F80825FFF797FF4FF0A0434FF413
:108AE8000032C3F80C25ABE700F108018088FFF7D6
:108AF8006DFF0028A4D0FDF7F3FDA1E7002301A92D
:108B08008088ADF80430FFF765FFF2E72C7B002082
:108B1800E84300200D280AD14FF0A04301294FF463
:108B280000220CBFC3F80C25C3F808257047FDF7D1
:108B3800D7BD0378052B03D1406808B1FDF7D0BD38
:108B48007047000038B50378012B1AD0022B18D0D3
:108B5800B3B90E4C0E4D20882844FEF7D7FC238865
:108B680001339BB21D44238015F8012C0A2A05D035
:108B78000D2A03D0074A12889A4201D8002323807D
:108B880038BDBDE838404068FDF7AABD8C740020A8
:108B980078740020E443002070B50B78012B04465C
:108BA80012D0022B25D0CBB901F10E02498801F071
:108BB80059FA08B1FDF794FD204601F021FA68B191
:108BC800BDE87040FDF78CBD8E688D890024AC42ED
:108BD80005D30A20FEF7B0FC1128FAD070BD305D2D
:108BE800FEF7AAFC18B11128F9D0FDF779FD013478
:108BF800EDE7BDE87040FFF707BF000000B5584D2E
:108C08000FCD8BB004AC0FC495E80300554B564A02
:108C180000934FF4807384E80300CDE902230193A5
:108C2800524A0723694604A8FEF718FC08B1FDF765
:108C380057FDFDF7F9FD08B1FDF752FD4FF0A043D0
:108C480003224FF40031C3F84427C3F808154FF442
:108C58008021C3F84827C3F80815C3F84C274FF4F8
:108C68000022C3F80825424840F233320121FDF7BB
:108C78009FFC08B1FDF734FDFEF716FA08B1FDF7C1
:108C88002FFD01F047FA08B1FDF72AFD002304A9DA
:108C98000120049301F0C6FA08B1FDF721FD04A8EC
:108CA80001F01CFB08B1FDF71BFD3249324800F00A
:108CB800C2FC08B1FDF714FD2F48172100F0D4FCC1
:108CC80008B1FDF70DFD0822002104A801F08CFB76
:108CD8002A4C2B4B049304A8059400F009FB08B117
:108CE800FDF7FEFC274B0493274B284DCDE90534AF
:108CF800002404A9284601F01DF908B1FDF7F0FC8D
:108D08000134082C05F11805F3D100F047F91022B9
:108D180000210DEB020001F067FB01231C4A1D48EE
:108D28008DF8143004A98DF81C3000F0A7FF08B1A5
:108D3800FDF7D6FC184A1748002100F059FF08B182
:108D4800FDF7CEFC13480022012100F07FFF08B197
:108D5800FDF7C6FCFFF758FEFEF7BCF9FCE700BFBD
:108D680050A60200547C0020547D00204D8B020048
:108D7800B8430020E1890200E07A0020C0430020C7
:108D8800FD890200A18B0200F98902002C7B0020DA
:108D98003B8B0200EC7B002008A7020030B5C8B16D
:108DA800F2B10024651C8D4206DA1588A54212D856
:108DB80005196D789D420ED1A14211D9005D48B1C7
:108DC800013880B230B10234A3B210FA84F4A1425F
:108DD80006DB138030BD055D01352C44A4B2E1E704
:108DE8000020F7E7F7B500230646ADF8063014462D
:108DF80012B9002003B0F0BD09230DF10602FFF7F8
:108E0800CDFFBDF806700546002FF2D00028F0D03F
:108E1800204601F043FBA8420246EAD1F119204658
:108E280001F086FAB0FA80F04009E3E70AB1FEF7EC
:108E380011B8FEF718B8000002487C22002101F0A2
:108E4800D3BA00BF547E002073B50191019C064639
:108E58006CB100252C46294601A8FEF70EF818B17A
:108E680006EB440301349D800135142DF3D13046BF
:108E7800346002B070BD00002DE9F0470388848893
:108E8800103B8CB005460A2B1FD8DFE803F0063FDD
:108E98001E1E1E1E1E1E1E604400314EB368DB439C
:108EA800009371686846FDF7FDFF009901A8FFF778
:108EB800CBFF0DF108094FF00008019B984507D337
:108EC800132C13D90420FDF70BFC0CB0BDE8F08778
:108ED80039F802AB00270137514606EB8700FDF74A
:108EE800C2FF1E2FF7D108F10108E6E71D48214609
:108EF800FDF7B0FF1C482146FDF7ACFFEB7B022BCA
:108F0800E3D11A482146FDF7A5FFDEE715482146BB
:108F1800FDF7A9FFD9E7027A15483F2A4FEA12154B
:108F2800214694BF00220122FFF780FF022D94BF43
:108F3800002201220F482146FFF778FF012D0E4835
:108F480094BF002201222146FFF770FFBDE7037A94
:108F5800002BBAD1427A0648C2F3C0022146F3E791
:108F6800547E00205C7E0020587E0020607E002019
:108F78006C7E0020687E0020647E002037B50024C7
:108F880001902546214601A8FDF777FF00B101357C
:108F98000134142CF6D1284603B030BDFFF74CBF7E
:108FA80007B5064BDA680192996801A8FDF77AFFC0
:108FB8000198FFF7E3FF03B05DF804FB547E00203F
:108FC80030B50B4B19680B4B0022914201D10020A0
:108FD80009E09D788478A54206D11D880488A542B9
:108FE80002D1054B186830BD01320433EDE700BFEC
:108FF800D87E0020DC7E0020D07E00202DE9F84FAE
:1090080090F8C6A24FF0760B04460AFB0B00884680
:109018009146FFF7D5FF074670B3D4F8CC52052D1B
:109028002AD804EBC5165A46A6F8D2920BFB0A4179
:1090380006F5357001F0AFF9B8F1000F14BF002341
:10904800022386F8D0320D4BC6F84C731A680135E6
:109058009542C4F8CC521D460ED104F5347600274B
:10906800F36F304698472B6801379F4206F1800618
:10907800F6D30023C4F8CC32BDE8F88FD87E0020A0
:1090880030B5A1B004460D467C22002101A801F0AC
:10909800ABF903238DF80430044BADF806501B6878
:1090A80002940BB101A8984721B030BDD07E0020B2
:1090B8002DE9F041074691F8C60276234FF00008E3
:1090C800A0B081F8C88200FB03100C461546FFF7D4
:1090D80077FF064660B17C22414601A801F084F979
:1090E80001238DF80430ADF80650029701A8B04767
:1090F80029462046FFF7C4FF20B0BDE8F0810000F4
:1091080030B58BB0044620220D4602A8002101F09C
:109118006BF904220DEB0200002101F065F994F8C7
:10912800C53294F8C62213B3013B7621DBB2514312
:10913800122000FB031323445B8A01339BB2ADF872
:109148000430762303FB024202A91389ADF80630E6
:1091580003238DF80830019BCDE90543064B0493A2
:10916800064B2A46186800F027FC0BB030BD762362
:1091780003FB0243DB88E2E7B9900200F47E00209B
:10918800F0B5044689B020220D466846002101F05A
:109198002BF994F8C7321E4A01331268DBB29342A6
:1091A80084F8C7324FF000022BD294F8C632194F18
:1091B80084F8C5220133DBB2762113FB01F057F89E
:1091C800237084F8C6322618275001FB03433271F6
:1091D8001B68CDF81230104B029302220F4B8DF80A
:1091E80000200122ADF81020186803942A46694629
:1091F80000F0E2FB18B12A462146FFF759FF09B0F3
:10920800F0BD84F8C82229462046FFF739FFF6E763
:10921800D87E0020DC7E0020B9900200F47E002079
:109228002DE9F047044688B00D4616460021202255
:10923800684601F0D9F894F8C62294F8C512762346
:1092480012FB03F2A018122790F804C017FB0123A1
:1092580001F1010E0A33E645234411D004F11C093B
:1092680000F1220E0CF1FF389144CAB294450BD993
:1092780088451B890ED102899A421BD1002312E02E
:109288001B890289934215D101232B70002008B055
:10929800BDE8F08707FB01FA01333EF80A20934244
:1092A8001DD109EB0A0394F8C522013284F8C522BE
:1092B8000131DAE701339BB2ADF810300A4B029363
:1092C80000210A4B297004218DF80010ADF81220F6
:1092D800186803943246694600F06EFBD7E7013AF6
:1092E8009BB292B2E8E700BFB9900200F47E00207A
:1092F80010B570B1026862B1436853B106490020E5
:109308000860064901240C7005490A60054A136083
:1093180010BD0E20FCE700BFD87E0020D47E0020C0
:10932800D07E0020F47E002010B5044680B10C4B9E
:109338001B787BB1FFF744FE70B90A4A1368052B06
:109348000CD80949246841F823400133136010BD43
:109358000E20FCE70820FAE70020F8E70420F6E7EB
:10936800D47E0020D87E0020DC7E0020F0B50D469B
:109378008BB0044600283BD0204B1B78002B39D0FB
:109388001F4B1B68002B35D090F8C812002933D129
:109398004FF4BA621B4F019101F026F8019920227F
:1093A80002A801F021F83868294600F093FBE8B9D3
:1093B800154BC4F8CC0284F8C502A4F8C602186894
:1093C800206002238DF808300126104BCDF81A00D2
:1093D800A4F8CA523868ADF818602A4602A905945C
:1093E800049300F0E9FA08B984F8C8620BB0F0BD3C
:1093F8000E20FBE70820F9E71120F7E7D47E0020CC
:10940800D87E0020F47E0020DC7E0020B990020087
:109418002DE9F3410C46054660B159B1794B1B78EB
:1094280043B10388322B53D007D8112B00F0DC80CE
:10943800302B21D002B0BDE8F081332BFAD18288DD
:10944800B1F8CA329342F5D1C08891F8C67291F842
:10945800C532002800F0958000218DF8071076218C
:1094680001FB0741013309798B427BD101238DF838
:109478000730AA88012123E08188B4F8CA228A42E9
:10948800D8D1C388DBB994F8C632762202FB0343ED
:109498000269C3F8062094F8C432827A1344062B72
:1094A800D4BFDBB2062384F8C4322046FFF728FE77
:1094B8000028BFD0AA882146FFF7FAFDBAE70021A5
:1094C8002046FFF79BFDA9882046FFF759FEB1E724
:1094D8008288B1F8CA329342ACD1C388002B40D1FC
:1094E80091F8C612807A762311FB03F1661805F10C
:1094F8000C08337918440628D4BFC0B2062030714E
:1095080003EBC30001EB40002044002796F804C099
:10951800634508F10A0800F112000FD3013B12203D
:1095280000FB03430B44598A3389994219D2BCF191
:10953800060F16D084F8C5C21146B6E7C4460133F3
:109548005CF80AED40F808ECDCF804E040F804ECBC
:10955800BCF808C0A0F800C047808780C780078192
:10956800D4E7002384F8C5320DF107012046FFF740
:1095780057FE00289ED19DF80730002B3FF45AAFC4
:1095880077E77621864601FB07F0122101FB0301EC
:10959800B5F80AC02E466018E645BFF45DAFF189FC
:1095A800A1F52451082908D8DFE801F015180507A6
:1095B800070707071B00B1898182818A39B1C18AEF
:1095C80029B1018B19B1418B00297FF445AF0EF108
:1095D800010E0636E0E7B189C182EEE7B189018361
:1095E800EBE7B1894183E8E7B1F8CA3282889A4249
:1095F80001BF002381F8C8324FF6FF73A1F8CA32C1
:1096080018E700BFD47E002090DF7047A5DF7047C1
:10961800B5DF70471FB50023ADF80810ADF80A1084
:109628006A4602A903930093ADF80430FFF7ECFFF4
:1096380005B05DF804FB10B5A0B14FF01713036037
:109648001B238164037100F1400417210022C180AB
:1096580001818272C272037343730830A042F6D14B
:10966800002010BD0E20FCE720B1172904D141804D
:10967800002070470E20704707207047F7B585888F
:10968800072D0C4618D80388242B4FEAC50700F08D
:10969800868013D8112B5BD0232B00F09380102BDE
:1096A80032D03C44A37A3BB1E1882846FFF7AEFFAD
:1096B80010B90123A072E37203B0F0BD3A2B51D068
:1096C800552BEED1C388CE19172BF18838BF172335
:1096D8008B4228BF0B4633810023B3722846FFF71D
:1096E80097FFF37A002BDCD1A36C002BD9D040F67E
:1096F8007722ADF800203289ADF80250ADF8042089
:10970800694620469847CCE7CE190B793373C37B5B
:10971800012B13D0022B14D0F18833898B4205D248
:109728002846FFF773FF70B90123F372317B737B0F
:109738008B42B6D22846FFF76DFFB2E70B88F3805D
:10974800EAE74B88FBE7112804BF0123B372EDE772
:10975800CB191722DA801A8100225A8141F61B326E
:109768009A819EE7CE194389F288934228BF13460F
:10977800172B8A6C38BF1723338162B1F17A51B144
:1097880040F67721ADF80010ADF80250ADF804307E
:109798006946204690470023F372B37281E7CB19DC
:1097A800027A5A738B6C002B3FF47BAF00218DF843
:1097B80005104DF67A21ADF80010ADF802508DF87D
:1097C80004209DE7CB19017A1B7B994228BF1946D3
:1097D800B0E79BDF70479DDF70479EDF7047A1DFD2
:1097E8007047A3DF7047AEDF704730B504880023A9
:1097F8009AB2944206D9456835F813508D4203F160
:109808000103F5D1104630BD8B6910B50C46198897
:10981800102912D80231FDF701FC606078B1A16906
:1098280000230222FDF729FCA26960681288E16919
:109838000223FDF722FC002010BD0920FCE70420CC
:10984800FAE710B50C46C98A10290AD8FDF7E6FBD5
:10985800606040B1E28AA1690023FDF70EFC002098
:1098680010BD0920FCE70420FAE70000F0B58BB032
:10987800002204460DF10601C068124EFDF7C5FC32
:10988800142502460AB10BB0F0BDBDF80670A368F6
:1098980005FB073702A93846FDF7B7FC38B10022A7
:1098A800E0680DF10601FDF7B0FC0246EAE79DF815
:1098B800083056F8233013B10398FDF799FB0022BE
:1098C800E8E700BF14A70200F0B58FB00D460122EB
:1098D80006A90646FDF799FC044690B99DF818308C
:1098E800052B4FD8DFE803F0030F1C24292EBDF801
:1098F8002A20BDF828102846FFF771FF0446112CCE
:1099080040D10FB0F0BD02A90798BDF82E200C91E8
:109918000023FDF7BCFB0AA92846FFF762FFEDE725
:10992800BDF828100DF12A022846FFF752FFE5E797
:109938000AA92846FFF74FFFE0E70AA92846FFF7DC
:109948004CFFDBE70DF1060402AB214607980D93A7
:1099580002220023FDF79BFBBDF806200D9907980E
:109968000C940223FDF793FB0AA92846BDF806705C
:10997800FFF739FF04460028C1D1BDF80630BB42C5
:1099880018BF0C249DF818200A4B53F8223013B145
:109998000798FDF72DFB002206A93046FDF735FC98
:1099A800002CAED0089B002BABD009992A46204644
:1099B8009847A6E714A702002DE9F8430F46144676
:1099C800054620B94FF00E084046BDE8F883002947
:1099D800F8D0FFF74BFF3B78052B5FD82146284688
:1099E800FFF703FF2B88834258D014264643A86804
:1099F8003044FDF703FC002855D03B78052B38D8B8
:109A0800DFE803F00311171E242A7A8A398A2046D0
:109A1800FFF7E5FE112846D058B3BB684BB3F96889
:109A28002246984725E007F110012046FFF7D9FEA6
:109A3800F0E7398A07F112022046FFF7CAFEE9E784
:109A480007F110012046FFF7C6FEE3E707F1100112
:109A58002046FFF7C2FEDDE7BB6907F1100120468B
:109A6800B3F80080FFF7BFFED8B9BB691B88434530
:109A780002D14FF00008A7E70C20CEE7286900289C
:109A8800A0D0394698478046A0B19DE73B7859F861
:109A98002330BBB17868FDF7ABFA13E04FF0070845
:109AA80092E71128B9D10A4A3B7852F823309146F7
:109AB800002BE3D1A86839463044FDF749FB8046BE
:109AC8000028E3D1A86821463044FFF7FDFE7BE774
:109AD80014A70200F8B50D46044678B3FFF7C6FE92
:109AE80029462046FFF781FE2288824211D00020B5
:109AF800F8BD616831F81310814203F101030BD0FE
:109B0800208800234FF6FF769AB282420BD30420B6
:109B1800EEE700234FF6FF7099B28A42E9D8206930
:109B2800FDF764FAECE761685A0001EB43078A5ACB
:109B3800B24203F10103E7D13D80D8E70E20D7E711
:109B480037B50C4608B301B30588112D15D18188A6
:109B58002046FFF74AFE2388ADF80600834214D05A
:109B6800112D14D163684FF6FF7223F810200DF100
:109B78000601E068FDF7ECFA07E0A5F130031F2BBA
:109B8800E5D9A5F150031F2BE1D903B030BDA36877
:109B9800142202FB0030FFF797FEF6E78ADF7047D2
:109BA8008BDF70478CDF704730B590F8233089B071
:109BB80004460D46D3B190F82C300193FFF7F0FF1F
:109BC8001422002103A800F00FFC019B04F12402D9
:109BD80004F12E01A81CFFF7E5FF05238DF80C30D2
:109BE800049018B1E36B0BB103A8984709B030BDD6
:109BF80070B51546044618B312B319BB104600F0E9
:109C08004DFC0138C0B21F281ED894F820600EB150
:109C1800042014E02946204600F019FC78B194F895
:109C28002000431C84F8203004EB4014284600F040
:109C380035FC29460246204600F0ADFB304670BD93
:109C48000E20FCE70720FAE70C20F8E768B1CB06FE
:109C58000DD011F0010116BF012380F8211080F802
:109C6800213080F82220002070470E2070470720FE
:109C7800704790F82E00C0F3C000704738B50D4605
:109C88000446002843D0C2630021232200F0ACFB25
:109C980065B32B7984F823302B7B84F82C302B6820
:109CA800D3B104F12E0203F10C0153F8040B42F86E
:109CB800040B8B42F9D11B881380AA680AB3106879
:109CC800516804F1240303C304F1400323661F23EE
:109CD800A4F86430002038BDE28DA38602F0E302C8
:109CE80042F48272E2850B4A2263E6E7E38DA58699
:109CF80003F0E30343F48273E385064B236384F89C
:109D08002350054A4FF0C873C4E90923DCE70E2045
:109D1800E1E700BFA00050000600180010B5044697
:109D280086B0E0B11422002101A800F05DFBFFF726
:109D380037FF2046FFF79DFF30B1E36B23B10122C7
:109D48008DF8042001A8984704F1600104F12E0061
:109D5800FFF724FF082808BF002006B010BD0E201A
:109D6800FBE72DE9F04F054687B035F8083B1B2B7C
:109D780006460C4678D01D2B14D0102B2FD1142258
:109D8800002101A800F030FB06238DF80430B388C9
:109D9800ADF80C3004F12E030593E36B0295F3B193
:109DA80001A875E01422002101A800F01DFB04F1B0
:109DB8002E0320460593FFF75CFF04F1600888B185
:109DC80002238DF8043001A8E36B029598474146B9
:109DD8000020FFF7E3FE29462046FFF7E5FE07B01F
:109DE800BDE8F08F94F8210094F8229088B394F895
:109DF80020A0B6F824B0274604EB4A1A574518D1D4
:109E08000020034601220295B9F1000F24D09A429E
:109E180026D100238DF8043029462046FFF7C4FEDA
:109E2800E36B0BB101A8984741460020FFF7B6FE47
:109E3800D5E73A46306A5946FEF7D4FF203700285E
:109E4800DCD09DF80C3043F001038DF80C30012371
:109E5800D8E703460246D6E710B18DF80490DBE751
:109E680003238DF80430DBE71422002101A800F059
:109E7800BBFA327A012AB2D1E36B002BAFD00421AE
:109E88002E348DF8041005948DF808200DEB010090
:109E98009847A4E762DF70470B6903B1184770471A
:109EA800F0B50C4687B014220546002101A800F041
:109EB8009BFA227852BBA388012B27D1A1792B7852
:109EC800994223D194F808C0BDF81260BDF8140077
:109ED800BDF81670122111FB0C4123469446994295
:109EE80016D1BCF1000F01D0ADF816701AB1ADF85B
:109EF8001260ADF81400EB6843B16288ADF8062033
:109F080000228DF8042001A92846984707B0F0BD23
:109F1800B3F80EE0BEF1020F04D0BEF1030F05D076
:109F28001233DCE7DF8A4FF0010CF9E7DE8A188B81
:109F38000122F5E7F0B5184B87B002AA04460D4692
:109F480003F1100C174618685968164603C60833FB
:109F580063453246F7D1ECB1E5B1AB68D3B12146E0
:109F68003846FFF797FF98B923788DF80630012314
:109F7800ADF804304FF6FF7363802B68E3606B68BD
:109F88002361AB68A0802081636101A8FFF7CCF949
:109F980007B0F0BD0E20FBE72CA7020010B5034662
:109FA80086B00846F9B1F3B149884FF6FF7291427D
:109FB80019D09C888C4216D11988112915D03929B5
:109FC80011D182887AB1598991420CD1C26852B1B3
:109FD80001218DF8041003F11001DB890391ADF81C
:109FE800103001A9904706B010BDC368002BFAD005
:109FF80002218DF80410428001A99847F3E7000078
:10A0080010B504468AB030B342884FF6FF739A42BF
:10A0180023D0C3880BB32022002102A800F0E4F962
:10A028000123ADF804308DF808300D4B6288606963
:10A03800CDE90434E388ADF81A304FF400330793C0
:10A0480001AB089302A940F20113ADF81830FFF7ED
:10A05800B3FC0AB010BD0E20FBE70820F9E700BFEB
:10A06800A19E020050B141802AB15388C380138851
:10A078008380938803814069FFF72CBD0E207047C9
:10A0880010DF704713B5044609496846FDF702F921
:10A09800019808B902B010BDD0E9002120469047C8
:10A0A80018B16846FDF700F9F2E71120F2E700BFA2
:10A0B80040A7020013B5044607496846FDF7EAF8C9
:10A0C800019B0BB902B010BD2046D3E9002190478F
:10A0D8006846FDF7E9F8F3E758A702000B4991F83D
:10A0E80016335A09EC231341DB0706D5084B9A6847
:10A0F8003AB94FF480030B60704742F20200FCF754
:10A10800EFBA1A6842F480021A60704700E100E072
:10A1180034730020F7B5194F3C7864BB184E0125FD
:10A1280020463570FFF7AEFF112821D02046FFF7F3
:10A13800C1FF144B8DF80340186801900DF103001E
:10A14800FCF7A0FC104901A8FFF79AFF0446B0FAF3
:10A1580080F0400938709DF80300FCF7B7FC3CB963
:10A168000A4B34701C70FFF7B9FF2846FFF7A2FFAF
:10A17800204603B0F0BD0824FAE700BFF97E0020AE
:10A18800F87E00203CA7020005670200FA7E002046
:10A19800014B1878704700BFF97E002007B50849C1
:10A1A8006846FDF777F8019B13B903B05DF804FB27
:10A1B800D3E9002090476846FDF776F8F3E700BF3B
:10A1C8004CA70200FFF7EABF60DF704769DF7047FE
:10A1D80061DF704730B5114B1B7891B0E3B1104D7A
:10A1E80034240DF1020103A8ADF80240FFF7F0FF97
:10A1F80070B9294601A8FDF74DF8029B002BF0D055
:10A2080003A8D3E90021904701A8FDF74DF8F4E72A
:10A21800052801D0FCF764FA11B030BDFB7E0020A0
:10A2280064A7020030B5044685B00D46002950D019
:10A23800294B0B600C22002101A800F0D5F8082357
:10A248002A688DF8063001A906232020ADF80830C9
:10A258008DF80440FFF7BAFF0C22002101A800F096
:10A26800C3F800244FF484732A68ADF8063001A9B6
:10A2780040208DF80540FFF7A9FF0C22214601A8D0
:10A2880000F0B2F82A68012001A98DF80400FFF750
:10A298009DFF0C22214601A800F0A6F84FF4B063F8
:10A2A8002A68019301A9A120FFF790FF0C222146FB
:10A2B80001A800F099F89DF804302A6864F30003B7
:10A2C80001A9A0208DF80430FFF780FF204605B0D3
:10A2D80030BD0E20FBE700BF9843002008B5FFF70C
:10A2E80073FF10B9014B01221A7008BDFB7E0020D4
:10A2F8004BDF70471FB50D4C01A8FFF7F9FF70B988
:10A30800214602A8FCF7C6FF039B002BF4D0019856
:10A31800D3E90021904702A8FCF7C6FFF4E7052817
:10A3280001D0FCF7DDF904B010BD00BF70A7020032
:10A338007AB370B414460F2A15D902460B4640EA80
:10A34800010515F0030F01D0013C0EE01946104637
:10A358000432043306680D68AE4204D1104619462B
:10A36800043C042CF2D8013C0ED00A4603460444AF
:10A37800114618460133013206780D78AE4203D1F2
:10A3880018461146A342F3D100780B78C01A70BC66
:10A39800704700207047844640EA010313F0030F1A
:10A3A80018D18446202A0BD32DE9F007B1E8F80725
:10A3B800A0E8F807A2F12002202AF7D2BDE8F007AA
:10A3C800042A07D351F8043B40F8043BA2F10402E5
:10A3D800042AF7D2002A05D011F8013B00F8013B06
:10A3E800013AF9D1604670478446002A2DD010F012
:10A3F800030F04D000F8011B013A26D0F7E7C9B2D1
:10A4080041EA012141EA0141202A12D3A2F12002A6
:10A418002DE9F0030B460C460D460E460F468846BE
:10A428008946A0E8FA03203AFBD2BDE8F0032032BF
:10A438000BD0042A05D340F8041B043A05D0042A9B
:10A44800F9D200F8011B013AFBD16046704710F0C1
:10A45800030F19D111F0030F16D12DE970004FF039
:10A4680001364FF0803350F8044B51F8045BAC428E
:10A4780005D1A4EB060525EA04051D40F3D0A0F19B
:10A488000400A1F1040170BC10F8012B11F8013B84
:10A49800D21A01D1002BF7D11046704700F1010103
:10A4A80010F0030F11D010F8012B002A23D010F060
:10A4B800030F0AD010F8012B002A1CD010F0030F4C
:10A4C80003D010F8012B002A15D02DE970004FF0A9
:10A4D80001324FF0803350F8044BA4EB020525EA13
:10A4E80004051D4000D1F6E7A0F1040070BC10F887
:0CA4F800012B002AFBD1A0EB01007047F3
:08A50400B17802000000000024
:10A50C00818E02000000000055890200000000004E
:10A51C00499B0200C04300206B9D0200EC7B002095
:10A52C0019940200E843002019940200B849002055
:10A53C0019940200884F00201994020058550020ED
:10A54C0019940200285B002019940200F860002086
:10A55C0019940200C866002019940200986C00201F
:10A56C0085960200E07A0020A59F02002C7B00203B
:10A57C00A59F0200447B0020A59F02005C7B00206D
:10A58C00A59F0200747B0020A59F02008C7B0020FD
:10A59C00A59F0200A47B0020A59F0200BC7B00208D
:10A5AC00A59F0200D47B0020318A0200000000002D
:10A5BC00907400205875002060750020987400205D
:04A5CC001800000073
:10A5D0007475002060750020080000000200000073
:04A5E0000100000076
:08A5E4004D79020000000000A7
:10A5EC00DDA1020000000000FDA20200000000003E
:10A5FC00707200200100060000000000AC72002008
:10A60C00396702000338FDD8704700000CA5020022
:10A61C000CA5020004000000FFFFFFFFFFFFFFFF7F
:10A62C00FFFFFFFFFFFFFFFF000000000000000026
:10A63C000000D6010601000000000101000000012D
:10A64C0001000000080000000600000005000000EA
:10A65C00070000000000000000E0D7012076002079
:10A66C0080750020040000002000000001000000A4
:10A67C00CC7600202C760020040000002000000086
:10A68C000100000078770020D8760020040000003C
:10A69C0020000000010000002478002084770020B6
:10A6AC00040000002000000001000000D078002011
:10A6BC0030780020040000002000000001000000A1
:10A6CC007C790020DC7800200400000020000000D1
:10A6DC0001000000287A0020887900200400000086
:10A6EC002000000001000000D47A0020347A002001
:10A6FC00040000002000000001000000495041430C
:10A70C005F70657269660000000000004B980200E3
:10A71C000000000000000000000000001198020082
:10A72C009ECADC240EE5A9E093F3A3B50000406EAD
:10A73C0001000007E4A50200E4A5020008000000E7
:10A74C00ECA50200FCA5020008000000E4A5020034
:10A75C00ECA50200080000000CA50200BCA502003C
:10A76C000800000004A502000CA50200080000006F
:10A77C000010014011000400000000000020004007
:10A78C000000000000200040000000000090D003FA
:10A79C000D0003001D8B020008000000D4430020B4
:10A7AC0068A60200D0A50200BCA50200FFFFFFFFB7
:10A7BC00FFFFFFFFFFFFFFFFFFFFFFFF1400000085
:10A7CC00000000000000000000000000000000007D
:10A7DC00000000000000000000000000000000006D
:10A7EC00000000000000000000000000000000005D
:10A7FC00000000000000000000000000000000004D
:10AA8C0000000000000000000000FFFF00000000BC
:10AA9C0000000000000000000000000000000000AA
:10AAAC00000000000000000000000000000000009A
:10AABC00000000000000000000000000000000008A
:10AACC00000000000000000000000000000000007A
:10B05C0000000000000000000000FFFF00000000E6
:10B06C0000000000000000000000000000000000D4
:10B07C0000000000000000000000000000000000C4
:10B08C0000000000000000000000000000000000B4
:10B09C0000000000000000000000000000000000A4
:10B62C0000000000000000000000FFFF0000000010
:10B63C0000000000000000000000000000000000FE
:10B64C0000000000000000000000000000000000EE
:10B65C0000000000000000000000000000000000DE
:10B66C0000000000000000000000000000000000CE
:10BBFC0000000000000000000000FFFF000000003B
:10BC0C000000000000000000000000000000000028
:10BC1C000000000000000000000000000000000018
:10BC2C000000000000000000000000000000000008
:10BC3C0000000000000000000000000000000000F8
:10C1CC0000000000000000000000FFFF0000000065
:10C1DC000000000000000000000000000000000053
:10C1EC000000000000000000000000000000000043
:10C1FC000000000000000000000000000000000033
:10C20C000000000000000000000000000000000022
:10C79C0000000000000000000000FFFF000000008F
:10C7AC00000000000000000000000000000000007D
:10C7BC00000000000000000000000000000000006D
:10C7CC00000000000000000000000000000000005D
:10C7DC00000000000000000000000000000000004D
:10CD6C0000000000000000000000FFFF00000000B9
:10CD7C0000000000000000000000000000000000A7
:10CD8C000000000000000000000000000000000097
:10CD9C000000000000000000000000000000000087
:10CDAC000000000000000000000000000000000077
:10D33C0000000000000000000000FFFF00000000E3
:10D34C0000000000000000000000000000000000D1
:10D35C0000000000000000000000000000000000C1
:10D36C0000000000000000000000000000000000B1
:10D37C0000000000000000000000000000000000A1
:040000032000635D19
:00000001FF
