:020000022000DC
:1060000000000120B5620200DD620200DF620200D2
:10601000E1620200E3620200E562020000000000AB
:10602000000000000000000000000000E762020025
:10603000E962020000000000EB620200ED62020073
:1060400055940200EF620200B59C0200EF6202006C
:10605000EF620200EF62020071980200EF6202003C
:10606000EF620200EF620200EF620200EF620200E4
:10607000EF620200EF620200EF620200EF620200D4
:10608000EF620200157E0200EF620200EF62020082
:10609000EF620200EF62020089CE0200EF620200AE
:1060A000EF620200EF620200EF620200EF620200A4
:1060B000EF620200EF62020000000000000000003A
:1060C000EF620200EF620200EF620200EF62020084
:1060D000EF620200EF620200EF62020000000000C7
:1060E00000000000000000000000000000000000B0
:1060F00000000000000000000000000000000000A0
:10610000000000000000000000000000000000008F
:10611000000000000000000000000000000000007F
:10612000000000000000000000000000000000006F
:10613000000000000000000000000000000000005F
:10614000000000000000000000000000000000004F
:10615000000000000000000000000000000000003F
:10616000000000000000000000000000000000002F
:10617000000000000000000000000000000000001F
:10618000000000000000000000000000000000000F
:1061900000000000000000000000000000000000FF
:1061A00000000000000000000000000000000000EF
:1061B00000000000000000000000000000000000DF
:1061C00000000000000000000000000000000000CF
:1061D00000000000000000000000000000000000BF
:1061E00000000000000000000000000000000000AF
:1061F000000000000000000000000000000000009F
:1062000010B5054C237833B9044B13B10448AFF3F0
:1062100000800123237010BDE87200200000000000
:1062200054E7020008B5034B1BB103490348AFF321
:10623000008008BD00000000EC72002054E702005E
:10624000154B002B08BF134B9D46A3F5803A002148
:106250008B460F461348144A121A07F01FFA0F4BC9
:10626000002B00D098470E4B002B00D09847002001
:10627000002104000D000D48002802D00C48AFF3A7
:10628000008007F0CBF92000290004F005FE07F09C
:10629000B1F900BF0000080000000120000000006C
:1062A00000000000E8720020588500200000000077
:1062B000000000000649074A074B9B1A03DD043B18
:1062C000C858D050FBDC02F075FDFFF7B9FF0000A5
:1062D00014E9020098430020E8720020FEE7FEE780
:1062E000FEE7FEE7FEE7FEE7FEE7FEE7FEE7FEE786
:1062F000F0B595B000241D460E460846174602F03C
:106300001FFB304623460822099505A91A9D0897C8
:106310000D950A948DF82C400C9402F075FB9DF8B5
:1063200014308DF81140DDE9061003F00302012A54
:10633000CDE9020128D0022A04D0304602F004FB45
:1063400015B0F0BDBDF81650C3F3C2038DF8103080
:10635000C5F389150827082D2C4628BF08243B467D
:1063600022460EA9304602F04FFB2D1B214608ABFA
:1063700002AA0EA8274400F09FFE002DEBD1304664
:1063800002F0E2FA15B0F0BDBDF81470059DC7F338
:106390008312C3F3C2040EA93046920008238DF87D
:1063A0001040C7F3831702F02FFBC5F3952508AB08
:1063B0003A4628460EA9009302AB00F005FE30468F
:1063C00002F0C2FA15B0F0BD014B01221A707047FD
:1063D00048730020704700BF00B583B0044B0093A2
:1063E000044A4023FFF784FF03B05DF804FB00BFBD
:1063F000F96302000873002038B50E480E4D03788B
:106400000E4CEB5C00252570D2B253B1043004F081
:10641000FBF958B90A4B1B7813B12378002BFCD039
:1064200038BD0C3003F0A2FE0028F3D001F0D2F802
:10643000F0E700BF984300205485002048730020F7
:10644000047300202DE9704319481A4A0378D35C7D
:1064500088B02BB3043004F037F9174D0FCD6C46DC
:106460000FC495E80F004FF0EB7684E80F004FF073
:1064700006084FF0FF394FF0FF344FF0FF350C485E
:10648000069600226946CDE90089CDE9024502F071
:1064900067FF48B9094B00221A7008B0BDE8708345
:1064A0000C3003F0F5FDD8E701F094F8F2E700BFF7
:1064B0009843002054850020ECD60200047300208D
:1064C000F0B5154D0FCD89B06C460FC495E80F009F
:1064D0004FF0EB7C84E80F0006264FF0FF374FF0BB
:1064E000FF344FF0FF350D4A0D48CDF818C069460E
:1064F000CDE90067CDE9024502F032FF20B9094B32
:1065000001221A7009B0F0BD01F064F8054B0122B8
:106510001A7009B0F0BD00BFECD60200C9630200DA
:10652000984300200473002008B5FFF7C9FF044812
:10653000042100F0C7FC034B01225A7108BD00BFC3
:10654000FCE80200AC430020064B074810B50022CF
:106550001A7002F08BF9044610B9044802F0B2FB3D
:10656000204610BD1C740020A8E8020044D7020099
:1065700099B10E4B0E495B1ADB0815D030B40022DE
:106580000C4D02E0013293420BD035F82240844298
:10659000F8D151F8320030BC7047054951F830004D
:1065A0007047002030BC704718467047A8E80200CA
:1065B00010E80200E8720020094B013903EBC0002B
:1065C00003290BD8DFE801F0040208060420704715
:1065D000022070474079704700797047002070476B
:1065E00010E802002DE9F0438C4CD4E901239A42D3
:1065F00085B060D00023C4F81834BFF34F8FA5686E
:10660000EAB2D31C04EB830114F82330580718D5E1
:1066100066680B7803F00303012B42D0022B03D1F1
:106620004B88023505EB9315EAB2D4F81804D31C55
:1066300004EB830128B9AE4239D914F823305B0743
:10664000E7D404EB82026B1CD2680192DBB204EB4C
:10665000830302F00302DB680293022A05F10206BB
:106660002DD0012A00F08D80D4F810543DB12B6854
:1066700028469B689847EB681D68002DF7D168484D
:10668000684B6949C01AC008000440F0020000F0DD
:10669000D1F8D4E90130C01A18BF012005B0BDE817
:1066A000F0830B880235C3F383131D44BCE7A66057
:1066B00005B0BDE8F083002005B0BDE8F083BDF86B
:1066C00006305A48C3F389184546502D28BF502537
:1066D00065F38F1305F10801ADF8063002F0C8F834
:1066E00007460028C0D002F02BF9002301A9082298
:1066F000384602F055F9F343DBB20133B5EB830FB3
:106700004FEA8309F1B277D9A5EB0905033104EB10
:10671000810108234A463846EDB202F041F9444966
:106720002A4609F10803384602F03AF908F103084D
:1067300006EB9806D4F81834002B6AD1D4F810541C
:1067400065B1EB685A7928463946002A5DD02B6836
:106750001B689847EB681D68002DF2D1384602F09F
:10676000F3F800230DF103008DF8033001F0BEF9BA
:10677000D4F8183403B9A6609DF8030001F0DCF9E1
:1067800087E7BDF804302948C3F38312062A28BFDF
:106790000622911C62F389138900ADF8043002F0DF
:1067A00067F8074600283FF45FAF02F0C9F80023FE
:1067B000082201A9384602F0F3F8BDF8043013F4BA
:1067C000707FB7D06FF00108A8EB05080825F1B27B
:1067D00003312B46042204EB8101384602F0E0F835
:1067E000BDF80420013608EB0603C2F383129A4277
:1067F00005F10405EBD89DE703312A4604EB81013E
:106800000823384602F0CCF890E71D68002D98D197
:10681000A4E7384602F098F83BE700BF1C7400205C
:1068200038E8020010E802002CD70200A8E80200B5
:10683000287400202DE9F04F5E4C87B000230646F7
:106840000DF10B008DF80B300F4601F04FF9D4E934
:10685000015303F580735B1B012B7DD804F21C48A8
:1068600004F5836A04F214491AE0BDF80E30C3F34C
:1068700089130333090C0BEB930B4846019101F08C
:10688000DDFB0199002839D04046C4F808B001F07A
:10689000A9FBD4E9013202F58072D21A012A5CD830
:1068A0000121404601F09EFB504601F0B7FB4846EF
:1068B00001F0B4FBA368DAB2D11C04EB810014F838
:1068C000211001F0040C490728D404EB8202591C62
:1068D000D2680392C9B204EB810102F00302012ADB
:1068E000C96803F1020B30D0022ABED0002148460D
:1068F000019101F0A3FB01990028C5D14046C6E7EC
:1069000043880EEB9313DAB2D11C04EB810014F828
:10691000211001F0040CBCF1000FD6D0017801F079
:10692000030101290BD0022903F1020E02F1030138
:10693000E6D004EB8100BCF1000FEFD1C5E702887F
:106940000233C2F383121344DDE7BDF80C30C3F306
:106950008313090C9B4490E72B46DAB203320233CF
:1069600005219DF80B0044F82210636001F0E4F863
:106970000021114801F00CFB80F31000F1006B1CAA
:1069800001F03801DBB2EDB204EB830341F0010109
:106990000004033540EA164641EA8727DE6044F8E2
:1069A000257023781BB1FFF71DFE0028FBD107B02F
:1069B000BDE8F08F1C740020387800202DE9F04FDE
:1069C000634C87B0002306460DF10B008DF80B30A9
:1069D0000F46904601F08AF8D4E9015303F580731D
:1069E0005B1B022B7FD804F21C4904F5836B04F275
:1069F000144A1BE0BDF80E20C2F389120332090CC1
:106A000003EB92035046CDE9003101F017FB0199E9
:106A100000283AD0009BA360484601F0E3FAD4E98D
:106A2000013202F58072D21A022A5DD8012148464D
:106A300001F0D8FA584601F0F1FA504601F0EEFAAA
:106A4000A368DAB2D11C04EB810014F8211001F024
:106A5000040C490729D404EB8202591CD268039222
:106A6000C9B204EB810102F00302012AC96803F1F3
:106A7000020331D0022ABDD000215046CDE90031B9
:106A800001F0DCFA01990028C4D14846C5E74388E3
:106A90000EEB9313DAB2D11C04EB810014F8211031
:106AA00001F0040CBCF1000FD5D0017801F0030116
:106AB00001290BD0022903F1020E02F10301E6D0F5
:106AC00004EB8100BCF1000FEFD1C4E70288023370
:106AD000C2F383121344DDE7BDF80C20C2F3831226
:106AE000090C13448EE72B46DAB2033203334521F7
:106AF0009DF80B0044F82210636001F01DF8AB1CF8
:106B0000DBB204EB830300211248C3F80C8001F0D0
:106B10003FFA80F31000F1006B1C01F03801DBB28A
:106B2000EDB204EB830341F041010004033540EA78
:106B3000164641EA8727DE6044F8257023781BB1AA
:106B4000FFF750FD0028FBD107B0BDE8F08F00BF74
:106B50001C740020387800202DE9F04F684C89B073
:106B6000002506460DF113001F468DF81350884688
:106B7000039200F0BBFFD4E9015303F580735B1B64
:106B8000032B00F2828004F21C4904F5836B04F2AB
:106B9000144A1BE0BDF81620C2F389120332090C17
:106BA00003EB92035046CDE9013101F047FA029917
:106BB00000283BD0019BA360484601F013FAD4E9BA
:106BC000013202F58072D21A032A5FD801214846A9
:106BD00001F008FA584601F021FA504601F01EFA79
:106BE000A368DAB2D11C04EB810014F821C01CF0B8
:106BF000040F0CF0040128D104EB8202591CD26866
:106C00000592C9B204EB810102F00302012AC968AE
:106C100003F1020332D0022ABCD000215046CDE954
:106C2000013101F00BFA02990028C3D14846C4E7AC
:106C300043880EEB9313DAB2D11C04EB810014F8F5
:106C4000211001F004010029D6D090F800C00CF00A
:106C5000030CBCF1010F0BD0BCF1020F03F1020ECB
:106C600002F1030CE4D004EB8C000029EDD1C3E762
:106C700002880233C2F383121344DCE7BDF8142008
:106C8000C2F38312090C13448CE72B46DAB20332A9
:106C9000043385219DF8130044F82210636000F04E
:106CA0004BFFAA1CEB1CDBB2D2B204EB830C04EB4F
:106CB0008202039B1348D3600021CCF80C7001F0D2
:106CC00067F980F31000F1006B1C01F03801DBB2B2
:106CD000EDB204EB830341F081010004033540EA87
:106CE000164641EA8821DE6044F8251023781BB15E
:106CF000FFF778FC0028FBD109B0BDE8F08F00BF9A
:106D00001C740020387800202DE9F04F6B4C89B0BE
:106D1000002506460DF113001F468DF813508846D6
:106D2000039200F0E3FED4E9015303F580735B1B8B
:106D3000042B00F2828004F21C4904F5836B04F2F8
:106D4000144A1BE0BDF81620C2F389120332090C65
:106D500003EB92035046CDE9013101F06FF902993E
:106D600000283BD0019BA360484601F03BF9D4E9E1
:106D7000013202F58072D21A042A5FD801214846F6
:106D800001F030F9584601F049F9504601F046F952
:106D9000A368DAB2D11C04EB810014F821C01CF006
:106DA000040F0CF0040128D104EB8202591CD268B4
:106DB0000592C9B204EB810102F00302012AC968FD
:106DC00003F1020332D0022ABCD000215046CDE9A3
:106DD000013101F033F902990028C3D14846C4E7D4
:106DE00043880EEB9313DAB2D11C04EB810014F844
:106DF000211001F004010029D6D090F800C00CF059
:106E0000030CBCF1010F0BD0BCF1020F03F1020E19
:106E100002F1030CE4D004EB8C000029EDD1C3E7B0
:106E200002880233C2F383121344DCE7BDF8142056
:106E3000C2F38312090C13448CE72B46DAB20332F7
:106E40000533C5219DF8130044F82210636000F05B
:106E500073FEA81CEA1C2B1DC0B2DBB204EB800041
:106E6000D2B204EB830C04EB8202039BC3600021CB
:106E7000129B1348D760CCF80C3001F089F880F3EE
:106E80001000F1006B1C01F03801DBB2EDB204EB35
:106E9000830341F0C1010004033540EA164641EA8C
:106EA0008821DE6044F8251023781BB1FFF79AFB98
:106EB0000028FBD109B0BDE8F08F00BF1C74002092
:106EC0003878002030B4154DD5F810140446002051
:106ED00071B10B4601E01B6853B1DB681A7982423D
:106EE000F9D101300A28F3D14FF0FF3030BC7047A0
:106EF000E3681871D5F810344BB1DA68E3681268AA
:106F00001A60D5F81034DB681C6030BC7047C5F8D7
:106F10001044E268136030BC704700BF1C7400204E
:106F200038B5084BD3F8104401251D704CB1E36807
:106F30005D71236820465B689847E3681C68002CF5
:106F4000F5D138BD1C74002030B5C38885B0044627
:106F50000D461BBB217A05291ED0627A82B9134ADD
:106F6000A08852F8212003920021FFF701FB039A29
:106F70000F490346284605B0BDE8304001F0DAB8B5
:106F8000A088FFF719FB0B4B0B4953F8202028462C
:106F900001F0D0F8217AE2E705B030BD074A00924F
:106FA0000749084A284601F0C5F8D3E71CD8020073
:106FB0007CD70200F8D7020078D7020070D7020011
:106FC00058D7020050D702002DE9F04385B04FF0AA
:106FD000000C0C9C814694F80C8084F80CC00E4682
:106FE0001746184621461D46FFF7AEFF062F09D863
:106FF000DFE807F0042E343B444F1F00494620468B
:1070000001F098F82B7A052B05D06B7A5BB92749EC
:10701000204601F08FF8204601F080F884F80C80BB
:1070200005B0BDE8F083224A2249204601F082F8EB
:10703000EDE7D6E90413F2680393B3680291CDE952
:1070400000324946D6E90023204601F073F8D9E71B
:1070500032684946204601F06DF8D3E7D6E90023AF
:107060004946204601F066F8CCE7B3680093D6E9BC
:1070700000234946204601F05DF8C3E7D6E9023215
:1070800001920093D6E900234946204601F052F8C8
:10709000B8E7D6E90321B3680291CDE90032494649
:1070A000D6E90023204601F045F8ABE788D7020077
:1070B00070D7020078D70200082900D970472DE95F
:1070C000F04F9B4683B000241B7B8BF80C400D4691
:1070D00006465946104690460193DFF8D0902C4F53
:1070E000FFF732FF05E0325D013401F023F8082C90
:1070F00009D0A54239465846F5D84946013401F031
:1071000019F8082CF5D12349DFF8A490224C234F1D
:10711000584601F00FF84FF0000A0DE0D15D11F074
:10712000970F08BF2E22214658460AF1010A01F0A6
:1071300001F8BAF1080F10D0554505D916F80A2004
:107140007E2AEBD92E22EEE7494658460AF1010A7B
:1071500000F0F0FFBAF1080FEED198F80830052BD7
:1071600002D098F8093063B90D49584600F0E2FFA3
:10717000584600F0D3FF019B8BF80C3003B0BDE8FC
:10718000F08F084A0849584600F0D4FFECE700BFEA
:107190008CD7020098D702009CD702004DE602006F
:1071A00088D7020070D7020078D7020094D7020077
:1071B00084D7020038B5174B1D783DB3164B1968BC
:1071C000C0B200230C4604E00133AB4204F10804D2
:1071D0001CD011F833209042F6D102F03FFB6378C7
:1071E000A3F10103B3FA83F35B09834200D038BDF6
:1071F0000A4BD3E900231343F9D1094B0948196815
:107200000022BDE83840490800F008BC00231B7884
:10721000FFDE00BFD478002018790020007900201C
:10722000D8780020E07800202DE9F04FDFF8548274
:1072300098F8003083B0002B00F01981DFF84892F5
:107240008C4F8D4E00254FF0010A3C6814F8350034
:1072500002F004FB04EBC50314F835405B784FEAF9
:10726000540C14F0010E16F80C10A3F10103B3FA3C
:1072700083F314BF0A0901F00F025B09042A00F22C
:10728000A080DFE802F0725D32200300834240F00C
:10729000AB80BEF1000F0CBFF0230F2303EA010304
:1072A0000CBF03213021194306F80C1098F8002078
:1072B00001359542C9DBD9E90023134340F0CD8065
:1072C00003B0BDE8F08F83427BD0BEF1000F0CBF4E
:1072D000F0230F2303EA01030CBF042140211943CB
:1072E00006F80C1098F80020E2E783426CD1BEF15A
:1072F000000F0CBFF0230F2303EA010398F80020CE
:107300000CBF03213021194306F80C10002AD2D0FB
:10731000D7F800C00023614603E0934201F1080161
:10732000C6D01CF83300A04203F10103F5D14B682D
:10733000002BBDD020460121984798F80020B7E7E0
:10734000834219BF0020034602232020BEF1000F14
:107350000CBFF0220F2201EA020118BF03460B43C3
:1073600006F80C3098F80020A2E7834229D1BEF13C
:10737000000F14BF0F23F02303EA010314BF1021F1
:10738000012119430DF107004FF0000306F80C101E
:107390008DF8073000F0AAFBD9E90032A4F12001F2
:1073A000C4F120000AFA01F12AFA00F001430AFAB6
:1073B00004F4114323439DF80700C9E9003100F0AC
:1073C000BBFB98F8002073E7BEF1000F0CBFF02361
:1073D0000F2303EA01030CBF01211021194306F812
:1073E0000C1098F8002063E7BEF1000F14BF0F23C4
:1073F000F02398F80000194006F80C1098B1D7F85F
:1074000000C00023624603E0834202F108020AD072
:107410001CF83310A14203F10103F5D1536813B1F5
:107420000021204698474FF000030DF107008DF82A
:10743000073000F05BFBD9E90032A4F12001C4F170
:1074400020000AFA01F12AFA00F001430AFA04F4D2
:1074500022EA010123EA0403ADE7084B0848196852
:107460000022490800F0DAFA03B0BDE8F08FDFF837
:10747000189020E71879002008790020D87800209B
:10748000E0780020D478002000790020092A43D930
:107490002DE9F04182B0144606460D4602F060F830
:1074A000002832D0214A2249224B16600D70224812
:1074B0001C600021102206F0F1F8204B0020002172
:1074C0006C1EC3E90001E4B245B3DFF87C8006EB33
:1074D000C404032702E0A64220D01C469DF80630D3
:1074E000A57820788DF8047023F00703424601A99F
:1074F0008DF806308DF8055002F03CF8A4F1080331
:107500000028E8D002B0BDE8F08101F0D9FF0028E2
:10751000C8D002B0BDE8F08107207047084A09488A
:10752000002100F06DFA02B0BDE8F081187900206A
:10753000D4780020D8780020087900200079002035
:10754000297202003CD80200B571020070B5084DE6
:107550002B785BB1074E00243368012113F8340007
:1075600002F0ECF82B780134A342F5D8002070BD6E
:10757000D47800201879002070B5124D2B7882B095
:1075800053B1114E0024336813F8340002F034F97B
:107590002B780134A342F6D800230DF107008DF8B3
:1075A000073000F0A3FA094B9DF8070000240025DE
:1075B000C3E9004500F0C0FA054800F075FA02B0D2
:1075C00070BD00BFD4780020187900200079002019
:1075D000E078002000B585B00346002101AA44F2FE
:1075E0000100CDE90111039300F004F805B05DF846
:1075F00004FB00BF10B572B6FFF792FCFEF7F2FF76
:107600000028FBD1104B114C1149E41AE408240462
:1076100044F00100FFF70EF90E4B1B68DB0700D5A5
:1076200000BE0D4944F00200FFF704F9BFF34F8F8D
:107630000A490B4BCA6802F4E0621343CB60BFF304
:107640004F8F00BFFDE700BF10E8020038E80200DE
:1076500040D80200F0ED00E04CD8020000ED00E060
:107660000400FA05D0E90223D1E90201994208BFDA
:1076700090422CBF01200020704700BF2DE9F04F41
:107680002DED028B85B0064600F082FB40B1B54A75
:10769000D2E9003113F1807341F10001C2E90031F8
:1076A0000021304600F090FBAF4C60B1236853B12D
:1076B000AE4B25681B7823B11DB12B7F002B40F00A
:1076C0001C81002323600121304600F07DFB00284F
:1076D00040F0F680A64803A900F0FCFB78B3A54D66
:1076E000DFF88882A24F0BE0002B00F0CD8003A9C9
:1076F000384600F01FFC03A9384600F0EBFBF0B160
:107700000378012B12D0022BEED128464FF000094E
:1077100001F010FB30B180F81C90284601F00AFB04
:107720000028F8D1012388F80030E0E74168236899
:10773000994200F0BA80284601F006FBD7E7DFF84F
:1077400034828D4FDFF81C9208EE106A37E0404615
:1077500001F0F0FA05463846AB68EA6801930092FA
:1077600000F042FB854E8446D9E90001D6E90023AA
:1077700010EB0C0041F10001994208BF9042DDE995
:10778000002303D210F1807041F10001B3EB000A35
:1077900062EB010BBAF1010F7BF1000329DBBAF5B3
:1077A000350F6BD2AA684FF496030021384600F0DB
:1077B00069FA00285AD00D281FD0002323604046C4
:1077C00001F0BEFA002873D02368002BBFD02368D5
:1077D000D0E90201D3E90223994208BF904248D27E
:1077E00023681B7F002BB2D02168404601F08EFA3F
:1077F000ADE70021384600F0DBFA5C4B1B78002B2C
:10780000DBD02B7F002BD8D0384600F0EDFA844631
:10781000D9E90001D6E9002310EB0C0041F1000189
:10782000994208BF904203D210F1807041F10001EB
:10783000D5E90223994208BF904259D32B6903B975
:107840002B77D5E90530984729690029B5D02B7FDA
:10785000002BB2D0D5E90223521843F10003C5E949
:1078600002232946404601F051FAA6E72368BBB13E
:10787000256005B0BDEC028BBDE8F08F384600F006
:10788000B3FA3F4A02448EE743681A7F002A7FF426
:107890002EAF01221A774168284601F037FA26E711
:1078A00018EE100A00F0C0F9E2E7002323601EE79B
:1078B0002368002BDDD118EE100A00F0B9F9D8E7E3
:1078C0002D482E4D00F090FA264BD3E90089D5E9DA
:1078D000002318EB000849F10009994508BF9045BD
:1078E00003D218F1807849F10009C5E90089F1E671
:1078F0002946404601F00AFA5FE71F4800F074FA93
:10790000184A1E4BD2E90089D3E9002318EB00087E
:1079100049F10009994508BF904503D218F18078D4
:1079200049F10009D5E90223994508BF904529D3BB
:107930002B6903B92B77D5E90530984729690029C8
:107940003FF4BFAE2B7F002B3FF4BBAED5E9022343
:10795000521843F10003C5E902230648294601F005
:10796000D5F9AEE620790020A07900202879002002
:10797000847900206CD80200B4430020987900205C
:10798000FFFFB4000248294601F0C0F999E600BFA4
:107990006CD8020010B5134B13491B68134882B012
:1079A00058220193082300F03FFA044610B1204604
:1079B00002B010BD0E4A0F4801A900F0D5F80446E8
:1079C0000028F4D10B48012100F0D8F90123194611
:1079D000094A084800F030F9084B012220461A7085
:1079E00002B010BD68D802002C79002084790020F4
:1079F0007D760200B4430020FFFF7F00287900203D
:107A00004AB1A1F101010368B1FA81F14909C3E961
:107A10000412002070470720704700BF037F0BB19E
:107A200000207047F0B5826183B004461A480D46C5
:107A300000F0DAF9194B1A49D3E90023D1E90067BC
:107A4000121843F10003BB4208BFB24203D212F145
:107A5000807243F100035219216943F10003C4E924
:107A6000022301B125610F4801A900F0F5F948B1E1
:107A700000254460057001A90A4800F01BFA20B9EE
:107A800003B0F0BD042003B0F0BD034800F0B0F92E
:107A9000284603B0F0BD00BFB44300202079002089
:107AA000987900208479002030B5002583B0044601
:107AB000057701A90B4800F0CFF978B101224460A5
:107AC000027001A9074800F0F5F908B903B030BD0C
:107AD000054800F08DF9284603B030BD042003B0FE
:107AE00030BD00BF84790020B443002070B4EFF3B0
:107AF000108472B60D4B9A68AAB90D490D4E012536
:107B00009D60D1F8805035401D60C1F88060D1F88B
:107B100084505D604FF0FF33C1F88430027004B9C7
:107B200062B670BC704701230370F8E748850020F7
:107B300000E100E0FC06FFBD094B9A687AB170B91C
:107B400010B4EFF3108172B6064A1C6814605C68CA
:107B50005460986001B962B65DF8044B7047704795
:107B60004885002000E100E070B5274C4379274E9E
:107B700004EBC30546F823202D79002D37D1036887
:107B80000A88C3F8082590F904308A78002B26DB90
:107B900003F1604303F561435201D2B283F800233D
:107BA00090F90430002B07DB194903F01F0501226F
:107BB0005B09AA4041F823204279164B164D44F840
:107BC0003200581B04EBC204C0080123000413490F
:107BD000237140F00300FEF72DFE002070BD104918
:107BE00003F00F0352011944D2B20A76D8E70A4BC8
:107BF00008480C49C01AC008000440F00200FEF713
:107C000019FE082070BD00BFA4790020AC790020C7
:107C100000E100E048E8020010E802009CD8020001
:107C2000FCEC00E078D80200036801221A6070477B
:107C3000036801225A607047F0B404684FF480353D
:107C40008D40C4F80853066801F15004C6F8485343
:107C5000A4000668A4B20027375182B036590468E0
:107C6000019601F5A87122F07F42019E44F821207F
:107C70000268C2F8445313B10368C3F8045302B056
:107C8000F0BC70472DE9F04704464FF48036006899
:107C90008E40C0F848632068C0F80863206800EB95
:107CA00081058A46D0F80415D5F84005C5F8401579
:107CB0000AF15005AD002768ADB24FF0000847F853
:107CC000058082B0401A7F59009720F07F4001283C
:107CD00022F07F479946009A41D02268D2F8045595
:107CE000C2F844637A1B22F07F42012A0AF5A87188
:107CF00025D0226842F821702068D0F804557A1BFC
:107D0000C9F1FF13013A03F57F4322F07F4293420A
:107D100011D342B1C0F8446323680020C3F8046360
:107D200002B0BDE8F087013740F821702068D0F834
:107D300004359D42EED00D2002B0BDE8F0872068EA
:107D40000D4B013740F8217043F001034FF4806080
:107D500098472068D0F804359D42DBD0EBE7064A0F
:107D60004FF4806042F001029047226842F805809B
:107D700052590192019AB0E7B0D80200026802237A
:107D8000C2F8443311B10268C2F80433704700BF2F
:107D90000368D3F8040100B97047002282B0C3F829
:107DA0000421D3F804310193019B012002B07047F4
:107DB00002684FF4803303FA01F1C2F848130368F4
:107DC000C3F80813704700BF50318900036889B2B7
:107DD000585800B9704700225A5082B05B5801933E
:107DE000019B012002B070470368D3F80405704777
:107DF00090F90430002B09DB5A090548403203F0A2
:107E00001F03012101FA03F340F82230704700BF3D
:107E100000E100E0024A034B10681B68184700BFEE
:107E2000A4790020AC79002099B110B4B2FBF3F42E
:107E300003FB1424A4B244B9C0E900148460828115
:107E4000C38120465DF8044B704709205DF8044B60
:107E500070470E20704700BF30B482B050E8013F39
:107E60009DB2C48925448489A54228BF2D1B04895D
:107E7000A54202BFBFF32F8F002207E0C5EA03052A
:107E800040E80154002CE9D14FF001028DF80320A5
:107E90000193019B9DF803200B602AB10B880068B9
:107EA000184402B030BC704702F0FF03184602B01D
:107EB00030BC70470A884B889A4201D00020704736
:107EC00050E8012FC2EA024240E80123002BF7D11B
:107ED0000120704730B482B050E8023F1FFAA3F58A
:107EE000C488A54202BFBFF32F8F00220DE0C489D2
:107EF00025448489A54228BF2D1BC3EA054540E8D7
:107F00000254002CE8D14FF001028DF803200193B8
:107F1000019B9DF803200B602AB14B880068184430
:107F200002B030BC704702F0FF03184602B030BC0C
:107F3000704700BF0A884B889A4201D000207047E2
:107F400050E8022FC2EA224240E80223002BF7D178
:107F5000012070474A09012301F01F0100EB820054
:107F600003FA01F100F022B801F01F0201234909D0
:107F7000934000EB8100D94300F026B84B0901F093
:107F80001F0150F82300C84000F00100704700BFF7
:107F900010B4034653E8000F0A4643E8002494F067
:107FA000000FF7D15DF8044B704700BF10B40346D3
:107FB00053E8002F42EA010043E8000494F0000F68
:107FC000F6D15DF8044B704710B4034653E8002F18
:107FD00002EA010043E8000494F0000FF6D15DF8D6
:107FE000044B704710B4034653E8002F02EB010026
:107FF00043E8000494F0000FF6D15DF8044B70479D
:1080000010B4034653E8002FA2EB010043E800043C
:1080100094F0000FF6D15DF8044B704710B403469E
:10802000012253E8001F41EA020043E8000494F0F3
:10803000000FF6D15DF8044B704700BF10B4034643
:10804000002253E8000F00EA020143E8001494F014
:10805000000FF6D15DF8044B704700BFB8B130B4E3
:10806000D0E90112521A0468D2B2531E2160DBB269
:1080700042B101680A685C1E551C0D601370E3B2C2
:10808000FF2BF6D103680020187130BC70470E201A
:10809000704700BFF0B583B0044600250DF107001E
:1080A0008DF80750FFF722FDD4E900311A688A42A3
:1080B00010D9511E19602168A3680F6812F8015C7D
:1080C0000A79268AE068DB1BDBB29A4206FB0505CB
:1080D00038BF0B719DF80700FFF72EFD284603B04F
:1080E000F0BD00BF30B5054683B000230DF1070099
:1080F0000C468DF80730FFF7F9FC2A681368591C05
:108100001160E9682A8A641AB4FBF2F41C709DF8C5
:108110000700FFF711FD03B030BD00BF826842B118
:1081200010B5044643690168006998470023A360BD
:1081300010BD70470EB400B582B0039921B104ABF5
:1081400001AA019300F0ACF802B05DF804EB03B0B3
:10815000704700BF2DE9F04F164683B0B142DDE90C
:108160000C920F4605469A46C0F095800B464FF09C
:108170000108B3FBF6F39E4208F10108F9D9D04596
:1081800038BFD04612F00103019302D1B9F1000FBC
:108190005ED1AA68012403E00AF1FF3A06FB04F469
:1081A000BAF1010FF8D8B7FBF4F39E42F6D9DFF825
:1081B000ECA007E0B442B4FBF6F31AD3AA681C465D
:1081C000B7FBF3F31AF803B0BBF10A0F04FB137704
:1081D00028D02B68511CA96003F802B0D5E9013200
:1081E0009A42E7D32846FFF799FFB4FBF6F3B4426F
:1081F000E4D2019B9BB1B9F1000F10D02024C845F7
:1082000009F1FF390BD2AB682A68591CA960D45414
:10821000D5E901329A4214D2B9F1000FEFD103B07F
:10822000BDE8F08F511C2B68A9604FF00D019954E7
:10823000D5E901329A42CCD32846FFF76FFFAA68EE
:10824000C7E72846FFF76AFFB9F1000FD7D1E6E785
:1082500093071AD42024AA68C84502F1010199D2D3
:108260002B68A9609C54D5E901329A4209F1FF3983
:1082700003D2B9F1000FEFD18CE72846FFF74EFF8C
:10828000AA68B9F1000FE7D184E7BAF1000F0CBF7B
:1082900030242024DFE74FF0010870E7B8D802004F
:1082A000002900F054822DE9F04FDFF8B8950C78E2
:1082B00085B0064690460D464FF00D0A10E00A2C98
:1082C000B36800F0AD803268591CB160D454D6E96F
:1082D00001329A4280F0A0802C78002C00F0878038
:1082E0000135002C00F08380252CE8D12946002799
:1082F0000D4611F8012B2D2A00F08880302A00F05D
:1083000088802B2A7AD02A2A00F09980A2F13003A3
:10831000092B4FF000040BD804EB840402EB440457
:1083200015F8012FA2F13003092BA4F13004F3D981
:108330002E2A00F09080002301E015F8012F02F0B2
:10834000FB016829F9D0252A00F07781583AD1B28B
:10835000202947D8202A45D8DFE812F0350144000B
:1083600044004400440044004400440044004400ED
:10837000440043011301440044004400440013013D
:10838000440044004400440044004400D20044003F
:108390004400A20044009400440044003501012040
:1083A0009842024638BF1A460292002C40F0508193
:1083B000B80740F16E81002B40F04E821C46BBF1A5
:1083C000000FC0F20A827A0700F11A8207F0030256
:1083D000022A00F0EA81CDE9004759460A223046D8
:1083E000FFF7B8FE01352C78002C7FF479AF337B92
:1083F000002B40F01C8105B0BDE8F08F0D4611F850
:10840000012B2D2A47F004077FF478AF47F00107CE
:108410006EE747F002076BE73046FFF77FFE5BE74A
:108420003268591CB16002F803A0D6E901239342D7
:10843000FFF449AF3046FFF771FEB36843E7D8F861
:1084400000301A1DC8F800206A781C682E2A05F131
:1084500001057FF470AF6A78A2F13003092B05F1B2
:1084600001054FF000033FF66AAF03EB830302EB15
:10847000430315F8012FA2F130010929A3F13003BC
:10848000F3D95CE7D8F80020111DC8F80010116876
:108490003046CDE900470A22FFF75CFE0135A2E72E
:1084A000D8F800301A1DC8F8002017F00107D3F8DB
:1084B00000B040F0F080BBF1000F03D0584605F04B
:1084C000FFF80746BC4240F24381002C00F0408197
:1084D000202205E0BC4200F03B81002C00F03881F6
:1084E000B1683368481CB0605A54D6E901309842EC
:1084F00004F1FF34EED33046FFF710FE2022E9E707
:10850000D8F80020131DC8F80030B3683168176828
:10851000581C3022B060CA54D6E90123934280F03F
:10852000EF803268581C7821B060D154D6E901320E
:108530009A4280F0E0800F2F03D93B461B090F2B96
:10854000FCD84FF0805406E00F2C4FEA14137FF64E
:1085500049AFB2681C46B7FBF4F319F803B0BBF19E
:108560000A0F04FB137754D03368511CB16003F831
:1085700002B0D6E901329A42E6D33046FFF7CEFD8B
:10858000E2E7D8F80020111DC8F80010D2F800B0BA
:108590008BEAEB72A2EBEB72092A7FF700AFDFF8F0
:1085A000C8C2012011466329ACFB02E200F10100C0
:1085B0004FEAD202F6DC9842024638BF1A460292CF
:1085C000002C45D1F4E6D8F80020111DC8F80010A1
:1085D00011683046CDE900471022FFF7BBFD013599
:1085E00001E7D8F800301A1DC8F800201C78B368DD
:1085F0000A2C00F011813268591CB160D454D6E9BC
:1086000001329A42FFF4EEAE3046FFF787FD0135A6
:10861000E9E63368511CB16003F802A0D6E90132E3
:108620009A42A1D33046FFF779FDB2689CE7304605
:1086300005B0BDE8F04FFFF771BDB3683168581C55
:10864000B060CA54D6E901329A42DDD20135CAE699
:10865000BBF1000F59DB7A0757D4B80702D5002BBE
:108660003FF4ADAEF9073FF5AAAE94B120220299CE
:10867000A142BFF4A4AEB168481CB0603068425457
:10868000D6E90101814204F1FF3480F0D480002C4E
:10869000EDD1002493E69BF80030002B00F0E08041
:1086A000B0685F46CBF101020A2B02EB070B3CD00E
:1086B000411CB16031680B54D6E90130984226D292
:1086C00017F8013F002BEFD15C457FF68BAE2027DA
:1086D00002E05C453FF486AEB2683368511CB1607D
:1086E0009F54D6E901329A4204F1FF34F1D3304667
:1086F000FFF714FDEDE73046FFF710FDB2681AE70B
:108700003046FFF70BFDB3680BE7013CA5E73046A9
:108710000292FFF703FD17F8013F002BD4D0029A15
:10872000B0680A2B02EB070BC2D1411CB160316863
:1087300001F800A0D6E901108842B9D33046CDE94E
:108740000232FFF7EBFCDDE90232B068B0E77047B8
:108750009BF80040002C3FF445AE0A2CB0680ED0C8
:108760003368421CB2601C54D6E90130984214D2DE
:108770001BF8014F002C3FF435AE0A2CF0D13368C2
:10878000421CB26003F800A0D6E901309842E7D35A
:108790003046FFF7C3FCB068E2E73046FFF7BEFCA7
:1087A0001BF8014F002CD8D11CE6002B7FF413AE30
:1087B0008CB130220299A142BFF40DAEB168481CC1
:1087C000B06030684254D6E90101814204F1FF34BF
:1087D0003BD2002CEED10024FDE5B1684A1CB2600A
:1087E00032682D205054D6E901219142CBF1000B83
:1087F000FFF4ECAD30460393FFF790FC039BE5E5F7
:10880000B1684A1CB26032682B205054D6E901216D
:108810009142FFF4DBADEDE73268591CB16002F81C
:1088200003A0D6E901239342FFF4E5AE3046FFF7FB
:1088300075FCB368DFE630460393FFF76FFC039BDC
:108840002022002C7FF413AF23E730460393FFF779
:1088500065FC039B3022BCE7F9073FF5B0AD18E794
:108860009B4631E7B8D80200CDCCCCCCFFF7F6BBA5
:108870002DE9F041058A0331043D4E198046B6FBCF
:10888000F5F6FFF707FCA0B3F6B24FF48073013E94
:108890000446C580C0F8008083802BD003460025A5
:1088A00008E06279AE4202F1010262713860C0F8FC
:1088B00000801FD040461F46FFF7ECFB0135034602
:1088C0000028EED16779791E17D0224601339942EC
:1088D0001268FBD1D2F800805FB12668002501E064
:1088E00034463668214601354046FFF7FBFBAF4270
:1088F000F6D800242046BDE8F08120682146FFF725
:10890000F1FBF6E7F8B546790146701E13D00A462A
:108910000023013398421268FBD1176856B10D68E5
:10892000002401E029462D6801343846FFF7DAFBC0
:10893000A642F7D8F8BDBDE8F8400868FFF7D2BBFB
:1089400004300121FFF74EBB2DE9F041012104461F
:108950000430FFF755FB10F0FF0301D0BDE8F081B4
:108960006779791E16D02246013399421268FBD1ED
:10897000D2F80080002FF1D02668002501E03446AF
:108980003668214601354046FFF7ACFBAF42F6D8CA
:10899000BDE8F08120682146BDE8F041FFF7A2BBA9
:1089A0002DE9F8430546C6884079144606FB00F2D7
:1089B000043A04EB030C1F1D624538BFD41ABE42B3
:1089C0008846B7FBF6F106FB117002D801392D6815
:1089D000FCD1371AA74228BF27469CB14FF00009A7
:1089E0000430E41B28443A4608EB090104F048FE31
:1089F000A642B9442D6837464FF0000028BF2746ED
:108A0000002CEDD1BDE8F8832DE9F8430546C68872
:108A10004079144606FB00F2043A04EB030C1F1DD8
:108A2000624538BFD41ABE428846B7FBF6F106FB52
:108A3000117002D801392D68FCD1371AA74228BF1E
:108A400027469CB14FF0000904302918E41B3A4630
:108A500008EB090004F014FEA642B9442D6837461D
:108A60004FF0000028BF2746002CEDD1BDE8F88369
:108A700041DF7047064A074B10B5002414701C6094
:108A8000BFF35F8F0449054800F02AF9204610BD66
:108A9000B8790020BC790020D4D80200B079002039
:108AA00000B583B000230DF107008DF80730FFF704
:108AB0001DF8F1EE103A23F09F03E1EE103ABFF3F8
:108AC0005F8F0B4B4022C3F884219DF80700FFF70E
:108AD00033F804F0D3F928B920BF40BF20BF03B05A
:108AE0005DF804FBFFF7C4FF03B05DF804FB00BFB3
:108AF00000E100E0F0B5044683B000250DF1070069
:108B00000E468DF80750FEF7F1FF2368A26818683B
:108B10005968914238BF4D1CA84212D05868596814
:108B20008A420BD800225A60E268531E072B19D8DC
:108B3000DFE803F04540183B18181833013159603D
:108B4000F2E7217C002941D158685D68AA423AD8F1
:108B500059602268A16813688B4234BF0133002337
:108B60001360E1E76368314600FB023004F088FDE2
:108B70002268136851688B4282BFA06801300918CF
:108B8000CB1A91689DF80700994238BF9360FEF7B1
:108B9000D3FF0024204603B0F0BD6368D6E9006728
:108BA00003EBC000C0E90067E2E76368326843F89E
:108BB0002020DDE76368328823F81020D8E7636857
:108BC00032781A54D4E701355D60C2E79DF807009A
:108BD000FEF7B2FF0424204603B0F0BD70B5044692
:108BE00082B000230DF107000D468DF807301646C0
:108BF000FEF77CFF236818685968884211D019680D
:108C00002EB91A68A068824238BF561C1E60E268FE
:108C1000531E072B0DD8DFE803F0411A0C260C0C6D
:108C20000C329DF80700FEF787FF0524204602B0AE
:108C300070BD6368284601FB023104F021FD9DF8F8
:108C40000700FEF779FF0024204602B070BD63687C
:108C50009DF8070033F811302B80FEF76DFF0024DC
:108C6000204602B070BD63689DF8070053F82130BC
:108C70002B60FEF761FF0024204602B070BD6368E0
:108C80009DF8070003EBC101D1E90023C5E90023EA
:108C9000FEF752FF0024204602B070BD63689DF8C5
:108CA00007005B5C2B70FEF747FF0024204602B0F4
:108CB00070BD00BF036818685B68C01AB0FA80F026
:108CC000400970478268002393608268136182685C
:108CD00053618268D3608268536082681360704712
:108CE00001600B6843604A68934204BF00234360FD
:108CF000704700BF436843B1026891680B4443600A
:108D00005268934204BF00234360704770B54468C3
:108D1000064620680D4618B908E02468206828B186
:108D2000B368294698470028F7D120682860256055
:108D300070BD00BF4368186808B102681A607047C8
:108D400043681868704700BF4368186818B908E09E
:108D50000346006828B18142FAD10A681A600120EE
:108D600070477047114910B4A1F5947205E052F8AC
:108D70003330984238BF21460CD28C1AE30F03EBF4
:108D8000E4035B10914202EBC304F0D808485DF89D
:108D9000044B704702D904F10802EEE76068044B07
:108DA0005DF8044B002808BF1846704714DE020027
:108DB000D8DC020030B4974B1B685D1C00F00281C8
:108DC000954A1268062B00F0F280944B1B78062B14
:108DD00000F0DC808F4B1B685C1C00F0D0808E4A5A
:108DE0001268062B00F0C0808C4B1B78062B00F01D
:108DF000A880884B1B68581C00F09C80864A12682B
:108E0000062B00F08980854B1B78062B66D0814BA2
:108E10001B68591C2AD0804A062B11681BD0804A37
:108E2000D2F8883043F47003C2F88830BFF34F8F14
:108E3000BFF36F8F4FF01023D3F80022002AC0F247
:108E40008181D3F80432002BC0F27C81754B764AC5
:108E50001A6030BC7047CA1E032A40F211810339E0
:108E6000032940F2B6806C4B1B68C2E06B496F4A25
:108E7000097812680629C2F30312D0D1033A032AF3
:108E800040F2FE80654A694B12781B68062AC3F3DC
:108E90000313C4D1033B032B40F29B805F4A634B17
:108EA00012781B68062AC3F3031308BF4FF0FF3282
:108EB000B5D1033B032B40F2A280574B1B68062A17
:108EC000ADD1033B032BAAD8594AD35C002BA6D0C3
:108ED000584A136843F480631360A0E7534B1B6840
:108EE000C3F30313033B032B91D8534AD25C12B153
:108EF000524A03211160524AD35C002B87D0514A59
:108F0000514C5249524B05201060012500203F2250
:108F1000256008601A607AE7033A032A3FF673AFC8
:108F20004FF080430022C3F80C21C3F81021C3F88E
:108F3000382568E73D4A394B12681B78C2F30312A3
:108F40005EE73A4B1B68C3F30313033B032B3FF667
:108F500050AF404AD35C002B3FF44BAF3E4AD3683E
:108F600023F08073D36044E7033A032A3FF63CAF13
:108F70003A4B3B4A1B68C3F34233136034E72B4A36
:108F8000264B12681B78C2F303122AE7274B1B6893
:108F9000C3F30313033B032B3FF61CAF314AD35CEF
:108FA000002B3FF417AF304B304A1A6012E7033AF8
:108FB000032A3FF60AAF2E4B2E4A1B68C3F3042345
:108FC000136002E7194A154B12681B78C2F30312AB
:108FD000F8E6294B0F4A1B681268284903F04F0333
:108FE0000B60531C3FF45AAF0B4B062A1B687FF4EF
:108FF00016AF033B032B4FF006023FF65EAF4FF078
:109000008041D1F8003413F0010F034B40F09280FF
:109010001B6854E73001001034010010E00F00F02D
:1090200000ED00E0BC4300200090D003E80F00F00A
:1090300018DE02003C1700401CDE0200A0050040C4
:109040001CDE0200105600408856004018560040B2
:10905000145600401CDE0200F0ED00E04402001057
:109060003C0500401CDE020074C007400DF0ADBAA4
:10907000240300104035014058020010E40E004067
:1090800049498A5C002A48D04FF08053474AD3F8B8
:109090000414C2F82015D3F80814C2F82415D3F824
:1090A0000C14C2F82815D3F81014C2F82C15D3F8F4
:1090B0001414C2F83015D3F81814C2F83415D3F8C4
:1090C0001C14C2F84015D3F82014C2F84415D3F884
:1090D0002414C2F84815D3F82814C2F84C15D3F854
:1090E0002C14C2F85015D3F83014C2F85415D3F824
:1090F0003414C2F86015D3F83814C2F86415D3F8E4
:109100003C14C2F86815D3F840142948C2F86C150D
:10911000D3F844140368C2F870155A1C3FF4B2AE79
:10912000244A062B11687FF47AAE033903293FF6EF
:109130009AAE4EE71E4A1B6812686FF00100C1F834
:109140000004BCE61C4A0123C2F80435D2F80034FE
:10915000002BFBD04FF010231521174AC3F8001243
:10916000D2F80034002BFBD04FF010231521124A07
:10917000C3F80412D2F80034002BFBD000230E49B0
:10918000C2F80435D1F80034002BFBD0BFF34F8F69
:109190000A490B4BCA6802F4E0621343CB60BFF389
:1091A0004F8F00BFFDE700BF14DE020000C000408B
:1091B000300100103401001000E0014000ED00E03B
:1091C0000400FA0510B568B90E4CA368012262705C
:1091D0003BB1D3E900230020A2609847A368002B8D
:1091E000F7D110BD0128FCD1064C2369A070002BDB
:1091F000F7D0D3E900230120226198472369002B8F
:10920000F7D110BDC079002070B910B5074CA36824
:10921000012262703BB1D3E900230020A26098478D
:10922000A368002BF7D110BD704700BFC0790020A4
:1092300030B5012883B004D0032821D0B0B103B0E9
:1092400030BD294C00230DF107008DF80730FEF7E3
:109250004DFC23786BB3E3689DF8070001330122CE
:10926000E360A270FEF768FC03B030BD1F4B012223
:10927000C3F88020BFF34F8FBFF36F8F03B030BDB3
:10928000194C00F0B9F800230DF107008DF80730F4
:10929000FEF72CFCE368013BE360E3681BB9144B69
:1092A000D3F80054C5B19DF80700FEF745FC03B0A4
:1092B00030BD10486360A3602361E36000F090F864
:1092C00003F0DCFD60B10A4A01232370D2F80024C8
:1092D000002AC0D0A370BEE700F0A0F8A570E2E7B6
:1092E00000F08AF8EFE700BFC079002000E100E05D
:1092F00000000140C591020030B585B00478456892
:109300008DF80040D0E90240064A074B039053F81D
:109310002130019552F821108DF808406846984791
:1093200005B030BDD4790020D879002030B585B0A3
:10933000047845688DF80040D0E90240064A074BA2
:10934000039053F82130019552F821108DF8084010
:109350006846984705B030BDD4790020D879002000
:10936000F0B51A4B90F800C0194C1A4D91F81DE059
:1093700044F82C200746086945F82C0003F80CE057
:109380000C4616460FCC89B06D460FC594E80F0009
:1093900085E80F00CDF810C0BEF1000F0AD0002EF6
:1093A0000D4A694607F1040008BF324601F09EF8F5
:1093B00009B0F0BD002E094A694607F10C0008BF4C
:1093C000324600F093FD09B0F0BD00BF5485002087
:1093D000D8790020D4790020F99202002D93020060
:1093E000044A137923B9012110609180184670470F
:1093F00085207047DC790020074B1A68D20704D417
:10940000C02283F8002301221A604FF0804301221A
:10941000C3F81825704700BF00E100E010B40B4B03
:109420000B494FF0804200200224C2F8084383B069
:1094300018601B680193012301980B60D2F818345F
:10944000DB03FBD403B05DF8044B7047040100401C
:109450000C00004010B5174B1A6882B062B10021B1
:10946000154A19601B68507900934FF08041012321
:10947000009CC1F8083398B1104B1A68BAB10022A9
:109480001A601B6801934FF0804202210A4B019839
:10949000C2F808131B68012002B0BDE8104018474D
:1094A000116853718847054B1A68002AE7D102B04A
:1094B00010BD00BF00010040DC7900200401004025
:1094C000F0B5224C94F8583083B0002B3BD14FF0CC
:1094D000FF3121FA03F2D20748BFE21803F101037A
:1094E00048BF82F83010202BF3D14FF0FF334FF0FC
:1094F000FF364FF0FF370422002115482365C4E9E9
:109500000233C4E90433C4E90633C4E90833C4E9C7
:109510000A33C4E9006704F0C1F80E4BC02283F897
:10952000062340221A600C4B0C4A002018601B686E
:109530000193019D01214FF0004384F85810C2F8B7
:10954000043303B0F0BD082003B0F0BDE87900207B
:109550003C7A002000E100E07C61004000600040B7
:10956000034B93F85800003818BF0120704700BF24
:10957000E8790020F0B46F4B1D1895F93040002CAD
:1095800061DA8C78A707C4F3400C53D41C6A013409
:1095900000F0C8805C6A013400F0BD800C260A240B
:1095A00053F82450013552D0651CB5423FD253F8D0
:1095B0002570013700F0A780A51CB54237D253F8BB
:1095C0002570013700F09F80E71CB7422FD253F877
:1095D000275001353AD0271DB74228D253F82750DB
:1095E000013533D0671DB74221D253F827500135DA
:1095F0002CD0A71DB7421AD253F82750013525D0D9
:10960000E71DB74213D253F8275001351ED004F19D
:109610000807B7420BD253F82750013516D009344A
:10962000B44204D2DC6A013408BF0B240FD00420FA
:10963000F0BC70471C68013467D05C68013460D0AE
:1096400008260224ACE70820F0BC70473C461E18F0
:1096500065B243F8242086F83050BCF1000F02D1E7
:109660001C4484F848008A78540714D4D6073ED4A2
:109670004C784FF0A04600F5E072A40046F8224076
:109680002D4EC40800F0070C375D012202FA0CF2DF
:109690003A4332558A7812F002021CD0AB0003F133
:1096A000804303F5C0430978D3F8104524F44734C8
:1096B00024F44074C3F8104502020904D3F81005DD
:1096C00001F4403102F4F8520A430243C3F8102572
:1096D0000020F0BC7047083D2B44087893F85010E8
:1096E00041EA801183F850101046F0BC70478200A8
:1096F00002F1A042D2F8004724F00204C2F8004769
:10970000BEE70124A3E72C46A1E7002485F83040FA
:109710001A602546A7E7092685F830605A62344664
:1097200035469DE7082685F830601A62344635468E
:1097300096E700BFE87900203C7A002070B42C4CFA
:10974000251883B095F93020072A1CDD224492F8B1
:1097500048309B09032B40D0012B0CBF4FF4003342
:109760004FF44033800000F1A040D0F8002722F4ED
:109770004032C0F80027D0F800271343C0F8003764
:1097800003B070BC7047D3B2072BF9D8900000F13A
:10979000804000F5C04002F140039B00D0F8106506
:1097A0009BB203F1804303F5C04346F00106C0F8C5
:1097B0001065002018601B680193019B0029DFD011
:1097C00095F9303054F82330002BD9D009490123C2
:1097D00003FA02F2C1F80423D2E74FF0A043D3F812
:1097E0001035C34003F0010302331B04BAE700BF86
:1097F000E879002000600040164B034493F93030B4
:10980000072B0DDD800000F1A040D0F8003723F4D5
:109810004033C0F80037D0F80037C0F80037704741
:10982000DAB2072A14D810B49A0002F1804202F585
:10983000C042094CD2F81005012120F0010001FAC4
:1098400003F3C2F81005C4F808335DF8044B704701
:10985000704700BFE8790020006000404FF0A0434F
:10986000D3F8103523FA00F000F00100704700BF74
:10987000F0B585B0C84A002301931168012900F0B2
:10988000E7811E46C54B1A68012A00F0D381C44BFC
:109890001A68012A00F0C081C24B1A68012A00F040
:1098A000AD81C14B1A68012A00F09A81BF4B1A683A
:1098B000012A00F08781BE4B1A68012A00F05D8101
:1098C000BC4B1A68012A07D0BB4B1A68012A00F06A
:1098D000CB81FEB905B0F0BDB84AD2F80423120618
:1098E000F2D500221A6019680291196E02980129B6
:1098F00003F1600346F080060CD11A601B680393E5
:109900004FF0A043039AD3F820250192C3F82025F5
:1099100046F00046AA4F00240125A30003F180432E
:109920002E4203F5C0434FEA45050BD0D3F810058E
:1099300057F82420D3F81015C0F30420C1F30141D7
:1099400002B190470134082CE7D1002EC2DA9C4CBA
:1099500001254FF0A04694F95000471C3DD0C0F3BC
:10996000C20204AB1A4400F0070312F80C2C05FAEB
:1099700003F31A42C1B200F03F002ED0830003F17E
:10998000A04305FA00FCD3F80027D3F8007727F4AA
:109990004037C3F80077C2F30142D3F80077022AB8
:1099A0000CBF4FF4403E4FF4003E4EEA070E27181E
:1099B000C3F800E7C6F820C597F9303054F82330D3
:1099C0005BB18909032900F07181022A00F06B81E3
:1099D000032A02D1022900F0698194F95100411C47
:1099E0003DD0C0F3C20204AB1A4400F0070312F8E2
:1099F0000C2C05FA03F31A42C1B200F03F002ED03E
:109A0000830003F1A04305FA00FCD3F80027D3F844
:109A1000007727F44037C3F80077C2F30142D3F848
:109A20000077022A0CBF4FF4403E4FF4003E4EEA4E
:109A3000070E2718C3F800E7C6F820C597F930309D
:109A400054F823305BB18909032900F02581022AEB
:109A500000F01F81032A02D1022900F01D8194F930
:109A60005200421C3DD0C0F3C20204AB1A4400F0C5
:109A7000070312F80C2C05FA03F31A42C1B200F0E6
:109A80003F002ED0830003F1A04305FA00FCD3F879
:109A90000027D3F8007727F44037C3F80077C2F3E4
:109AA0000142D3F80077022A0CBF4FF4403E4FF436
:109AB000003E4EEA070E2718C3F800E7C6F820C597
:109AC00097F9303054F823305BB18909032900F04D
:109AD000DE80022A00F0D880032A02D1022900F099
:109AE000D68094F95300431C3DD0C0F3C20204ABAE
:109AF0001A4400F0070312F80C2C05FA03F31A427B
:109B0000C1B200F03F002ED0830003F1A04305FA5C
:109B100000FCD3F80027D3F8007727F44037C3F8C8
:109B20000077C2F30142D3F80077022A0CBF4FF44A
:109B3000403E4FF4003E4EEA070E2718C3F800E7F8
:109B4000C6F820C597F9303054F823305BB1890945
:109B5000032900F0A680022A00F0A080032A02D187
:109B6000022900F09E80D6F820350193C6F82035F2
:109B7000002B7FF4F0AE05B0F0BD104AD2F80423FC
:109B800051067FF59DAE00221A601B680293029B6E
:109B900046F0400694E600BF0061004004610040CA
:109BA000086100400C6100401061004014610040F9
:109BB000186100401C6100407C6100400060004072
:109BC000E87900203A4AD2F8042390067FF573AE74
:109BD00000221A601B680293029B46F020066AE688
:109BE000334AD2F80423D4067FF560AE00221A600F
:109BF0001B680293029B46F0100657E62C4AD2F8E7
:109C0000042315077FF54DAE00221A601B680293EE
:109C1000029B46F0080644E6254AD2F8042357077B
:109C20007FF53AAE00221A601B680293029B46F051
:109C3000040631E61E4AD2F8042392077FF527AEC8
:109C400000221A601B680293029B46F002061EE681
:109C50001749D1F8046316F001063FF413AE136000
:109C600013680293029B0DE600221A601B6803939F
:109C70004FF0A043039AD3F820250192C3F8202582
:109C8000002E3FF464AE43E601297FF42AAF9847E3
:109C900027E701297FF4E3AE9847E0E601297FF446
:109CA00062AF98475FE701297FF497AE984794E643
:109CB00000600040014B1B68184700BF447A002039
:109CC000114B98421DD130B583B000230DF1070030
:109CD0008DF807300D46FDF709FF0C4B1C794CB988
:109CE0009DF807001D6001221A71FDF725FF20462F
:109CF00003B030BD9DF80700FDF71EFF112003B033
:109D000030BD0020704700BF00200040447A002092
:109D1000034B984203D1034B00221A601A7170471B
:109D200000200040447A002030B56E4AD2F8043357
:109D300099058BB068D5D2F82431002B64D000236C
:109D4000C2F82431D2F8243101934FF40171664BEB
:109D50000198C2F8081393F8291009B9012151603C
:109D6000604902228DF81820D1F88024C1F880249F
:109D70009869D968099200240025CDE90710C3E944
:109D80000645D3E9001206A89047564AD2F81C317E
:109D9000C3B1554B5869196A88426AD993F828109B
:109DA00001F0FF00002964D1C2F81C01D2F81C1197
:109DB000039103999C68186A196A205C0131196241
:109DC000C2F81C05474AD2F84431DBB10021464BAA
:109DD000C2F84411D2F8440193F829100090009879
:109DE00009B1012111609A6962B1586AD9680022EB
:109DF0009A610122CDE907108DF8182006A8D3E951
:109E0000001290470BB030BD364AD2F804335B07DE
:109E1000BBD5D2F80831002BB7D0334B9969002954
:109E20003ED00021C2F80811D2F80811049104991B
:109E3000D868596AD2F8182542545A6A9969013289
:109E40005A625A6A8A42A0D1DA69002A31D0DD68A2
:109E50005C6A18699A6101210022D860DA615A624D
:109E60008DF81810CDE90754D3E9001206A89047E1
:109E70008BE71C4A0021C2F81C11D2F81C21029267
:109E8000029A5A69002A9DD058699A688DF818106C
:109E900008905961079206A8D3E90012904791E70C
:109EA000C2F80811D2F8080105900598D2F81825D3
:109EB000C7E793F8292012B90A4A01215160094ADB
:109EC0004FF40171C2F80813596ADA680891002446
:109ED000012007928DF81800D3E900129C6106A8B2
:109EE000904752E700200040507A00202DE9F041D1
:109EF000624F06792C2303FB067382B093F82A3055
:109F0000002B40F08D8005460C4600685C49904669
:109F1000FFF7D6FE00287FD12368591C0CD0012200
:109F20004FF0A04102FA03F3C1F80835236803F5A6
:109F3000E073032241F8232063685A1C06D003F51E
:109F4000E0734FF0A042002142F823102B68A26971
:109F5000C3F82425217D637D2A680B43C2F86C3544
:109F6000D4E900122B68C3F81425C3F80C15237D1F
:109F7000012B61D02C2303FB06F3FA18C2F80480EE
:109F80002269FA502A68B8F1000F33D00021237FEC
:109F9000C2F81C11D2F81C2100922A68DDF800C01A
:109FA000C2F84411D2F844112A680191354C019944
:109FB000C2F804432A6842F3073100294FEA1232FB
:109FC00032DB01F1604101F561415B01DBB281F8F7
:109FD00000332A6842F30733002B4FEA123109DBC2
:109FE000294C01225B0901F01F0102FA01F144F83A
:109FF00023102A682C2303FB067601240023042166
:10A00000C2F80015C6E9063386F82A4086F82930DA
:10A01000736102B0BDE8F081112002B0BDE8F081AB
:10A02000082002B0BDE8F081184902F00F025B0180
:10A030001144DBB20B76CCE7A368591C06D003F5BC
:10A04000E0734FF0A042002142F82310E3685A1C4D
:10A050000DD001224FF0A04102FA03F3C1F80835F8
:10A06000E36803F5E073032241F82320E3682A68DC
:10A07000A168C2F80835C2F810157BE7507A0020B5
:10A08000299D02008000020000E100E0FCEC00E0FD
:10A09000F8B5334E047902682C2303FB04630021D6
:10A0A0005B68C2F80015C3B103682E4AC3F80823E1
:10A0B000036843F30732002A4FEA13310EDB5209DB
:10A0C000294D2032012301F01F0103FA01F145F867
:10A0D0002210BFF34F8FBFF36F8F0368D3F80CC507
:10A0E000D3F81475D3F80815D3F810554FF0FF3294
:10A0F000C3F81425C3F80C2503689445C3F8082554
:10A10000C3F8102506D00CF5E07C4FF0A0430222E6
:10A1100043F82C207B1C06D007F5E0774FF0A043D6
:10A12000022243F827206A1C06D005F5E0754FF09F
:10A13000A043022243F825204B1C06D001F5E07114
:10A140004FF0A043022243F821200068FFF7E0FD12
:10A150002C2303FB0464002384F82A306360F8BDD9
:10A16000507A00208402020000E100E02DE9F04175
:10A17000314E05792C2303FB05630446586984B0EE
:10A1800000284CD15A619960186283F8280022682F
:10A19000C2F81C01D2F81C11226802910121029F11
:10A1A00091602268D3F808C0C2F81C01D2F81C11D3
:10A1B000019101991F6A196A1CF80770013119622F
:10A1C000C2F81C755A6812B104B0BDE8F0815F692D
:10A1D0001A6A216897421BD9864602E093F8282024
:10A1E0000ABBD1F81C21002AF8D0C1F81CE1D1F833
:10A1F0001C210392039AD3F820801A6A1CF8088065
:10A2000001321A62C1F81C851A6A9742E9D821689E
:10A21000D1F81C31002BFBD00123CB6004E01120CE
:10A2200004B0BDE8F0810F202C2303FB056500235B
:10A230006B6104B0BDE8F081507A0020F0B4504F5B
:10A2400006792C2303FB067386B05D68044625B1AE
:10A2500003684FF40170C3F808032C2303FB067353
:10A26000986990B1D86900287CD11961DA612C23F2
:10A2700003FB06735A683AB323684FF40172C3F8BC
:10A280000423002006B0F0BC704793F829509A616F
:10A29000D9605862D861002DE9D12368C3F82451F0
:10A2A000D3F8242123680192019AC3F80851D3F806
:10A2B000082123680292012202991A602C2303FBD1
:10A2C00006735A68002AD7D12168C1F84421D1F811
:10A2D00044210392039A2268D2F82411D2F808513B
:10A2E000D2F8440155B9002833D10029F4D02C23E9
:10A2F00003FB06760023B3610320C3E70029F6D1F0
:10A3000048BB9969C2F8080181B1D2F808110491DB
:10A310000499DD68596AD2F818256A545A6A99690D
:10A3200001325A625A6A9142D5D806E0D2F8081131
:10A3300005910599D2F818255B6A2C2303FB067654
:10A34000002296F82930B261A3B1236801221A6075
:10A3500098E70029CBD12C2303FB06760023B361B9
:10A360000F208FE755B123684FF40172C3F804231F
:10A37000112087E7236801225A6083E7112081E7D3
:10A38000507A002030B5574BD3F824218BB0002AE7
:10A3900075D00022C3F82421D3F82421049202228C
:10A3A0008DF81820049AD3F880144F4AC3F880140B
:10A3B0000991D3F83C15D368089100240025079330
:10A3C000C2E906451168536806A89847454BD3F87B
:10A3D000442152B10021444AC3F84411D3F8440146
:10A3E000916903900398002938D13E4BD3F820217E
:10A3F0005AB10021C3F82011D3F820210292012084
:10A40000394A029CD8605069D8B9364BD3F85821E4
:10A41000AAB10021C3F85811D3F85801324A01906B
:10A420000198506958B1D3F84C05936808908DF89D
:10A4300018105161079306A8D2E9001398470BB092
:10A4400030BDD3F84C05936808908DF81810516111
:10A45000079306A8D2E900139847D6E7D3F83C350E
:10A46000D168089300240025012307918DF8183046
:10A47000C2E90645D2E9001306A89847B5E7D3F824
:10A4800010110029A2D0C3F81021D3F810111648DA
:10A49000059105998469D3F83C15A14296D1C46908
:10A4A000A4B1D3F80052846125F02005C3F800520E
:10A4B000D0E90343C26101220891C3600168436887
:10A4C00007948DF8182006A898477FE7C268846132
:10A4D0000123CDE907218DF81830D0E9001306A833
:10A4E000984773E700200040807A00202DE9F04370
:10A4F0000779704E07EBC70306EB830387B093F829
:10A500002030002B40F0A78004460D4600686A49C1
:10A510009146FFF7D5FB002840F099802B68591C25
:10A520004FEAC7080CD001224FF0A04102FA03F312
:10A53000C1F808352B6803F5E073032241F82320A6
:10A540006B685A1C06D003F5E0734FF0A04200215F
:10A5500042F823102368A969C3F82415297D6A7D70
:10A5600023680A43C3F86C25D5E900312268C2F894
:10A570000C35C2F814152B7D012B78D008EB07029F
:10A5800006EB8203C3F804902B6946F82230B9F138
:10A59000000F4BD021682B7F484D0022C1F81021BD
:10A5A000D1F8101101912168DDF804C0C1F8202113
:10A5B000D1F8201102912168DDF808C0C1F82421EA
:10A5C000D1F8241103912168DDF80CC0C1F84421B1
:10A5D000D1F8441104912168DDF810C0C1F8582168
:10A5E000D1F85811226805910599C2F804532268E0
:10A5F00042F3073100294FEA123230DB01F16041AA
:10A6000001F561415B01DBB281F80033226842F35E
:10A610000733002B4FEA123109DB294D01225B0978
:10A6200001F01F0102FA01F145F8231022684744A6
:10A6300006EB8706002301240821C2F80015C6E9AD
:10A64000063386F82040736107B0BDE8F08311201F
:10A6500007B0BDE8F083082007B0BDE8F0831949D2
:10A6600002F00F025B011144DBB20B76CEE7AB6860
:10A67000591C06D003F5E0734FF0A042002142F8C8
:10A680002310EB685A1C0DD001224FF0A04102FAB2
:10A6900003F3C1F80835EB6803F5E073032241F8D2
:10A6A0002320EB682268A968C2F80835C2F81015A3
:10A6B00064E700BF807A002085A3020010034200F7
:10A6C00000E100E0FCEC00E02DE9F04105794B4CA5
:10A6D00005EBC50304EB830301465B68006882B0A9
:10A6E000EE00C3B1464BC0F808330B6843F30732A2
:10A6F000002A4FEA13330EDB5209DFF808C120327B
:10A70000012703F01F0307FA03F34CF82230BFF3CD
:10A710004F8FBFF36F8F721904EB8202D0F80032B3
:10A72000926923F02003C0F8003242B10023C0F840
:10A730004431D0F8443100930123009A4360002350
:10A74000C0F85831D0F8583101937319012204EB45
:10A750008303019FC2609A69D0F85831002BFBD067
:10A760001AB1D0F84431002BF6D00023C0F80035E0
:10A770000B684FF0FF32D3F80C85D3F814E5D3F80B
:10A780000875D3F810C5C3F80C25C3F814250B6859
:10A790009045C3F80825C3F8102506D008F5E078E1
:10A7A0004FF0A043022243F82820BEF1FF3F06D01D
:10A7B0000EF5E07E4FF0A043022243F82E20BCF1BC
:10A7C000FF3F06D00CF5E07C4FF0A043022243F897
:10A7D0002C207B1C06D007F5E0774FF0A043022227
:10A7E00043F82720FFF794FA354404EB850400234F
:10A7F00084F82030636002B0BDE8F081807A0020E8
:10A800001003420000E100E0F0B401F06044B4F154
:10A81000005F82B02CD10579274E05EBC50406EB0D
:10A82000840403466069EF0000283ED16261A160A4
:10A830001A68C2F82001D2F820C11A68CDF804C005
:10A84000DDF804C0C2F85801D2F8582100921A6805
:10A85000DDF800C0D4F814C0C2F84415C2F848C5E9
:10A860001A6801219160626832B102B0F0BC704791
:10A87000102002B0F0BC70471A6800E0C8B9D2F8E6
:10A880002011D2F858010029F8D090B90121D160E7
:10A890001B68D3F85821002AFBD07B1906EB8303F1
:10A8A00000225A6102B0F0BC7047112002B0F0BC27
:10A8B00070470F20F1E700BF807A002001F060436D
:10A8C000B3F1005F5ED1F0B40479474D04EBC406E8
:10A8D00005EB860682B07668E30026B107684FF480
:10A8E000047CC7F808C3234405EB83039C694CBB75
:10A8F0009A61DC61D9600368C3F81041D3F8106134
:10A9000003680196019EC3F84441D3F844410368AB
:10A910000094009CC3F83415C3F83825036801225D
:10A920001A60047904EBC40305EB8303E6005B685B
:10A9300053B303684FF40472C3F80423002002B039
:10A94000F0BC7047DC69002C37D11961DA6103680B
:10A95000C3F81041D3F8106103680196019EC3F853
:10A960004441D3F8444103680094009CC3F8341573
:10A97000C3F838250268D2F8003243F02003C2F849
:10A980000032CEE710207047036801E0E9B910BB40
:10A99000D3F81021D3F84411D3F82401002AF5D0BC
:10A9A000344400284FF0000305EB840518BF032052
:10A9B000994218BF0F20AB61C1E796B103684FF40D
:10A9C0000472C3F804231120B9E7344405EB84056D
:10A9D0000F20AA61B3E7344405EB84050320A96185
:10A9E000ADE71120ABE700BF807A0020032806D82E
:10A9F000012A06D001291BD0022908D071B10720F5
:10AA00007047012911D002294FF00002F6D10B4BFB
:10AA100000EB4000034400205A707047074B00EBE6
:10AA20004000034408469A70704700F10E02D2B20B
:10AA300000EB400301490020CA547047A47A00206B
:10AA400010B50388102B07D0112B04D1254B1868A3
:10AA50000138186030B110BD224C216811B30131AA
:10AA6000216010BD01220221FFF7C0FF40B107287D
:10AA700006D01D4B1B68002BEDD0BDE810401847D9
:10AA8000072202210120FFF7B1FF08B10728F0D10A
:10AA9000002108460A22FFF7A9FF0028DBD007287B
:10AAA000E7D1D8E701220846FFF7A0FF38B1072811
:10AAB00005D00D4B1B6803B198472168CFE70722EB
:10AAC00002210120FFF792FF08B10728F1D10422EB
:10AAD00002210020FFF78AFF0028EED00728E8D1E6
:10AAE000EBE700BFB47A0020B07A002075DF704732
:10AAF00076DF70478FDF7047FCF76CBD0146044876
:10AB00004B8803EB430300EBC30002F035BC00BFEE
:10AB10006C8100200D280AD14FF0A0434FF4002291
:10AB200001290CBFC3F80C25C3F808257047FCF7B2
:10AB300051BD00BF0378052B00D070474068002846
:10AB4000FBD0FCF747BD00BF38B50378012B03D01D
:10AB5000022B01D02BB138BDBDE838404068FCF76E
:10AB600039BD0B4D0B4C2888204402F0CDFB2B88BF
:10AB700001339BB21C442B8014F8012C0A2A03D009
:10AB80000D2A01D0132BE6D900232B8038BD00BF3E
:10AB9000CC7A0020B87A00202DE9F0410B78012B07
:10ABA00082B00C4606D0022B66D0002B46D002B0F5
:10ABB000BDE8F0818E898D68B1F80280002E00F02A
:10ABC00081802C46AF19207802F0AEFB88BB01349F
:10ABD000A742F8D1731EEB5C0D2B1FD03B4F08EB47
:10ABE000480807EBC80732462946384602F0A4FC5D
:10ABF00004460028DBD01128F5D0354B35483649BE
:10AC0000C01AC008000440F001002246FBF7D6FE3F
:10AC1000204602B0BDE8F041FCF7DCBC0A2002F09F
:10AC200083FB1128DAD10A2002F07EFB1128F5D02F
:10AC3000D4E71128C7D0FCF7CDFCC8E7244B254D3D
:10AC40002649ED1AED082D0445F003050646284671
:10AC5000FBF7F0FD618804F10E02304602F0BCFC07
:10AC600068BB304602F036FC30BB1D49284602B0B6
:10AC7000BDE8F041FBF7DEBD154B16481949C01A77
:10AC8000C008000440F003000190FBF7D3FD0198D9
:10AC9000154A1649FBF792FE154801F041FF40B9ED
:10ACA0004FF0A0434FF40032C3F80C2502B0BDE8CA
:10ACB000F081FCF78FFCF3E7FCF78CFCD5E7FCF7A1
:10ACC00089FCCEE74FF0FF3385E700BF6C810020A1
:10ACD00010E8020038E8020090DE02004CDE0200BC
:10ACE00060DE0200BCDE020010E00200CCDE0200EA
:10ACF0002C82002030B50388212B83B0044646D82F
:10AD00000F2B42D9103B112B3FD8DFE803F009602D
:10AD10003E3E3E3E3E3E3E3E3E3E3E3E3E583E4E29
:10AD2000FCF714FC534D544B5449A288ED1AED081E
:10AD30002D0445F003052846FBF740FEA1880729AE
:10AD400000F290804E4B01EB410003EBC00000226B
:10AD500002F042FC002840F08280A188494B4FF469
:10AD6000BA6000FB013000F0EBFD002874D14FF019
:10AD7000A0444FF48023C4F80C3500F097FA08285B
:10AD80004FF4003346D1C4F8083503B030BD3B2B37
:10AD900001D0562BF9D1A0881321FFF7A9FE002876
:10ADA000F3D0FCF717FC03B030BD00238088ADF86A
:10ADB000043001A9FFF79EFE0028E6D0F1E700F17C
:10ADC00008018088FFF792FE0028DED0E9E72948D5
:10ADD000294D237AA2882C49441BE408240444F01A
:10ADE00003042046FBF7B8FE00F060FA50B320469B
:10ADF000264A2749FBF7E2FD264801F091FEF0B90B
:10AE00004FF0A0434FF40032C3F80C25C3F80C25D3
:10AE100003B030BD28461D4A1D49C4F80C35FBF768
:10AE2000CDFD1C4801F07CFE30B94FF0A0434FF43B
:10AE30000032C3F80C25A8E7FCF7CCFBF5E7FCF7DC
:10AE4000C9FBDDE7FCF798FB88B94FF0A0434FF44E
:10AE50008022C3F80825CAE7FCF7BCFB87E7FCF7AC
:10AE6000B9FB7AE70020FCF7B5FBA1886AE7FCF79D
:10AE7000B1FBEAE738E8020010E80200F0DE020069
:10AE80006C810020EC43002024DF020010E002006F
:10AE9000CCDE02002C82002000B54FF480418BB044
:10AEA0000020FBF751FB002840F0C380FBF73CFB80
:10AEB000FCF770FD002840F0E680744D744B009361
:10AEC0000FCD04AC0FC495E80300724D724A84E8BC
:10AED000030007234FF4807404A86946CDE90254A7
:10AEE000019402F0A9F9002840F0CA804FF0A04375
:10AEF00003214FF480224FF400204FF40034C3F8B4
:10AF00004417C3F80845C3F84817C3F80825C3F821
:10AF10004C1740F23332C3F8080501215F48FCF7B3
:10AF2000B5FA002840F0A980FDF7A4FD002840F004
:10AF3000A18001F017FF002840F09980002304A9A8
:10AF40000120049301F0EAFF002840F08D8004A85E
:10AF500002F0A2F8002840F084805148002101F05E
:10AF600065F900287AD10822002104A802F096FB96
:10AF70004C4D4D4B049304A8059500F05FFC002850
:10AF800069D14A4C4A4A4B4B0695CDE9042304F15A
:10AF9000C00501E0AC420AD0204604A9183402F0F2
:10AFA00033FA0028F6D0FCF715FBAC42F4D100F0E0
:10AFB00075F9102200210DEB020002F06FFB012356
:10AFC0003D4A3E488DF8143004A98DF81C3001F03C
:10AFD00051FD00283CD13A4A3848002101F004FDD7
:10AFE00098BB384A3548032101F0FEFC50BB33487A
:10AFF0000022012101F02AFD08BB334B3348304ABF
:10B000003349C01AC008000440F00300FBF7D6FC27
:10B010002A4801F085FD78B94FF0A0434FF4003283
:10B02000C3F80C25FBF7DEFA0028FBD1FDF738FD4D
:10B03000F8E7FCF7CFFA39E7FCF7CCFAECE7FCF7D6
:10B04000C9FADAE7FCF7C6FAD1E7FCF7C3FAC8E7B2
:10B05000FCF7C0FABFE7FCF7BDFA92E7FCF7BAFAD3
:10B0600081E7FCF7B7FA78E7FCF7B4FA6FE7FCF78B
:10B07000B1FA63E7FCF7AEFA5BE7FCF7ABFA53E72C
:10B08000FCF7A8FA32E7FCF7A5FA16E754DF02004E
:10B09000948200209483002049AB0200C04300202A
:10B0A00020810020C8430020FDAA02006C810020FE
:10B0B00099AB0200F9AA020035AB02002C820020F5
:10B0C00010E002000CE0020010E8020038E8020084
:10B0D000CCDE020032B3F8B5054608B301291646A6
:10B0E0004FF000030ADDEA185278092A06D0EA5C1C
:10B0F000013213449BB25A1C8A42F4DB8B420FD2BA
:10B10000EA5C6AB1013A97B257B102339CB2E319D3
:10B110008B4205DC24B1304602F0D2FAB84203D0AB
:10B120000020F8BD0020704702462919304602F081
:10B1300099FAB0FA80F04009F8BD00BF2DE9F04758
:10B1400003888788103B98B004460A2B1CD8DFE898
:10B1500003F030291B1B1B1B1B1B1B1E0600037A45
:10B1600046483F2B4FEA1314394667D8FCF7FCFEDC
:10B17000032C65D042483946FCF7F6FE022C63D01A
:10B1800040483946FCF7F0FE18B0BDE8F087037A76
:10B19000002BF9D1437A39481B0739466BD5FCF7A8
:10B1A000D9FEF1E738483946FCF7DEFE18B0BDE8B5
:10B1B000F087364A9368DB43009351686846FCF792
:10B1C00003FF009B0193019B83B30026354629466C
:10B1D00001A8FCF7D3FE28B118AB03EB46030136F8
:10B1E00023F8285C0135142DF1D10D960DF1340CA6
:10B1F000BCE80F0002AD0FC5BCE80F000FC59CE80E
:10B20000070085E807008EB10DF10A08DFF888A075
:10B2100008EB460638F8029F1D4D2846494604357E
:10B22000FCF7A2FEAA45F8D1B045F3D1132F12D9ED
:10B230000420FCF7CFF918B0BDE8F087FCF78AFED0
:10B240000F483946FCF786FE0E483946FCF782FE69
:10B2500018B0BDE8F0870C483946FCF77BFE0C4877
:10B260003946FCF777FEE37B022B8DD1094839463E
:10B27000FCF770FE88E7FCF777FE85E7AC840020DA
:10B28000A8840020A48400209C84002094840020B2
:10B2900098840020A08400201085002002487C2291
:10B2A000002102F0FBB900BF9484002030B50C4BA4
:10B2B00083B0DA68009299686846FCF785FE00253D
:10B2C000009B01932C46214601A80134FCF756FE51
:10B2D00000B10135142CF6D1284603B030BD00BFB3
:10B2E000948400202DE9F84F684F90F8C6623D68BD
:10B2F000C6EB0613C6EB8303044600EB430045B3DD
:10B3000088465900624B807893F802C0844500F06B
:10B31000A580012D1DD993F806C0844500F0A680B4
:10B32000022D16D093F80AC0844500F0A780032DA3
:10B330000FD093F80EC084450DD0042D09D093F89A
:10B3400012C084457CD0052D03D093F816C08445E7
:10B350007ED0BDE8F88FB3F80CE034F801C0E645C4
:10B36000EBD14C4BD3F800B0BBF1000FF1D0D4F8C7
:10B37000CC92B9F1050FECD804EBC91A7623AAF8E0
:10B38000D22203FB06411A460AF5357002F078F91D
:10B39000B8F1000F09F1010314BF00220222AB42F1
:10B3A000CAF84CB38AF8D022C4F8CC32D1D1D4F840
:10B3B0004C3304F5347098473B68012B3BD9D4F8E3
:10B3C000CC3304F5547098473B68022B33D9D4F83A
:10B3D0004C3404F5747098473B68032B2BD9D4F890
:10B3E000CC3404F58A6098473B68042B23D9D4F801
:10B3F0004C3504F59A6098473B68052B1BD9D4F867
:10B40000CC3504F5AA6098473B68062B13D9D4F8CD
:10B410004C3604F5BA6098473B68072B0BD904F506
:10B42000CA650726EB6F284698473B6801369E425F
:10B4300005F18005F6D30023C4F8CC32BDE8F88FBF
:10B44000B3F810E034F801C0E6457FF47CAF88E73C
:10B45000988A635A984284D0BDE8F88FB3F800E028
:10B4600034F801C0E6457FF454AF7AE7B3F804E05E
:10B4700034F801C0E6457FF453AF72E7B3F808E053
:10B4800034F801C0E6457FF452AF6AE71885002022
:10B490001C850020108500202DE9F043064689B068
:10B4A0000C46154600212022684602F0F7F896F86F
:10B4B000C68296F8C522C8EB0813C8EB830806EBD2
:10B4C000480E02EBC2039EF804005B0003EB480346
:10B4D000511C0A338142334448D082423ED24FEA63
:10B4E0004807122111FB027106F11C083144B844CF
:10B4F00000F1FF3C62451B891BD04F8C0133BB42DE
:10B500001ED0013FBFB29BB21B48ADF810300023E4
:10B5100023702A46194B0068ADF81270694604245E
:10B5200003968DF80040029301F0E0F809B0BDE801
:10B53000F083BEF80870BB4216D001339BB2E3E73C
:10B5400002EBC20308EB4303571C5FFA87F9484537
:10B550003A4686F8C57201F11201CBD801230020CA
:10B56000237009B0BDE8F0830023EDE71B89BEF826
:10B570000870BB42E1D1F1E73485002081B50200BB
:10B580002DE9F0430C463F4994F8C6320D68C3EBF1
:10B590000316C3EB860300211646A1B05A0084F8B7
:10B5A000C81204EB4303F5B137499B780746887806
:10B5B000984254D0012D16D98879984255D0022D41
:10B5C00011D0887A984256D0032D0CD0887B9842AF
:10B5D0001FD0042D07D0887C984235D0052D02D08D
:10B5E000887D984236D0DFF8A48001AD7C2200210E
:10B5F000284602F053F8D8F80030ADF80660032270
:10B6000002948DF804200BB12846984721B0BDE87C
:10B61000F083B1F80CC0A05A8445DAD1DFF86C8011
:10B62000D8F8009001ADB9F1000FDFD028467C2298
:10B63000002102F033F80123ADF806600297284696
:10B640008DF80430C847D1E7B1F810C0A05A84453E
:10B65000C4D1E3E7898AA35A9942C4D1DEE7B1F89D
:10B6600000C0A05A8445A5D1D8E7B1F804C0A05ABB
:10B670008445A4D1D2E7B1F808C0A05A8445A3D12B
:10B68000CCE700BF188500201C8500201085002015
:10B690002DE9F0430446A9B020220D4601A800215F
:10B6A00001F0FCFF604E94F8C73232680133DBB220
:10B6B000934284F8C73231D294F8C6325B4F049477
:10B6C0000133DBB2C3EB0312C3EB820257F8230052
:10B6D00084F8C6324FF0000984F8C59204EB4201A9
:10B6E00044F81200762202FB034381F804901A68A2
:10B6F0004F48CDF8162002224E4B8DF804204FF013
:10B70000010C0068ADF814C001A92A46039300F0AB
:10B71000EDFF8046C0B929B0BDE8F08300217C224E
:10B7200084F8C81209A801F0B9FF434BADF82650C0
:10B730001B680A9403228DF82420002BEBD009A863
:10B74000984729B0BDE8F08394F8C632326884F88F
:10B75000C892C3EB0311C3EB8103590004EB43030D
:10B76000E2B19B78B87898424AD0012A16D9B879C4
:10B7700098424AD0022A11D0B87A98424AD0032A75
:10B780000CD0B87B98424AD0042A07D0B87C9842A3
:10B7900017D0052A02D0BA7D9A422CD0264F09AE86
:10B7A0007C220021304601F079FF3B68ADF826503D
:10B7B00003220A948DF82420002BACD03046984701
:10B7C000A9E73E8A605A8642E3D11B4FD7F8009022
:10B7D00009AEB9F1000FE3D030467C22002101F020
:10B7E0005DFF0123ADF82650CDF8288030468DF856
:10B7F0002430C847D4E7BA8A635A9A42CED1E4E7E4
:10B800003E88605A8642B0D1DFE7BE88605A8642E1
:10B81000B0D1DAE73E89605A8642B0D1D5E7BE8919
:10B82000605A8642B0D1D0E7188500201C850020E0
:10B830003485002081B502001085002080B10368A6
:10B8400073B1426862B130B406480749074D084CED
:10B8500003600A60002001232860237030BC704719
:10B860000E207047108500203485002018850020A8
:10B8700014850020002857D02D4B1B782BB370B4B3
:10B880002C4C2D4B2268002A50D081789D788D4217
:10B890001DD0012A34D99D798D4222D0022A31D07F
:10B8A0009D7A8D4222D0032A2CD09D7B8D4222D0BE
:10B8B000042A27D09D7C8D422CD0052A22D09D7D44
:10B8C0008D422CD0042070BC704708207047068839
:10B8D0001D88AE42DDD11949096889B1002070BCCC
:10B8E00070479E880588AE42D8D1F4E71E89058846
:10B8F000AE42D8D1EFE79E890588AE42D8D1EAE7BB
:10B90000052ADFD8511C006843F82200216000207E
:10B9100070BC70471E8A0588AE42CED1DBE79D8A97
:10B9200001888D42CED1D6E70E2070470121EAE78B
:10B9300014850020188500201C850020108500201B
:10B94000002843D0224B1B78DBB1224B1B68C3B1CC
:10B95000F0B590F8C86289B00446A6B90D464FF418
:10B96000BA6231461C4F01F099FE314668462022EA
:10B9700001F094FE3868294600F098FF30B109B014
:10B98000F0BD08207047112009B0F0BD134BA4F89A
:10B99000CA521B68C4F8CC0284F8C502A4F8C602D7
:10B9A0002A46236002260125CDF8123038680C4B58
:10B9B000039469468DF80060ADF81050029300F0D2
:10B9C00095FE0028DBD184F8C852D8E70E207047D6
:10B9D0001485002018850020348500201C85002057
:10B9E00081B50200002800F0E2802DE9F04F0D46FD
:10B9F000A3B0002900F0AB80744B1B78002B00F043
:10BA0000A6800388322B044600F0EC8000F2A2806E
:10BA1000112B00F0CD80302B40F099808388B1F855
:10BA2000CA229A4240F09380C388002B40F01582CE
:10BA300091F8C6320269762101FB0353C3F8062050
:10BA400095F8C432827A1344062B00F3D08285F82D
:10BA5000C43203AE202200213046A78801F01EFE2A
:10BA60000422002102A801F019FE95F8C53295F8CC
:10BA7000C622002B00F0EC81013BDBB2762103EB08
:10BA8000C30301FB02F101EB43032B445B8A013347
:10BA90009BB2ADF80830762303FB02534C481B8958
:10BAA000ADF80A3002994B4B00680593CDE9065179
:10BAB00003213A468DF80C10314600F017FE074678
:10BAC000002844D095F8C632434AB4F8048011687F
:10BAD000C3EB0312C3EB82030024580005EB4302BF
